{
  "address": "0xCf7Ed3AccA5a467e9e704C703E8D87F634fB0Fc9",
  "abi": [
    {
      "inputs": [
        {
          "internalType": "contract IVotes",
          "name": "_token",
          "type": "address"
        },
        {
          "internalType": "contract TimelockController",
          "name": "_timelock",
          "type": "address"
        },
        {
          "internalType": "uint256",
          "name": "_votingDelay",
          "type": "uint256"
        },
        {
          "internalType": "uint256",
          "name": "_votingPeriod",
          "type": "uint256"
        },
        {
          "internalType": "uint256",
          "name": "_quorumPercentage",
          "type": "uint256"
        }
      ],
      "stateMutability": "nonpayable",
      "type": "constructor"
    },
    {
      "inputs": [],
      "name": "Empty",
      "type": "error"
    },
    {
      "anonymous": false,
      "inputs": [
        {
          "indexed": false,
          "internalType": "uint256",
          "name": "proposalId",
          "type": "uint256"
        }
      ],
      "name": "ProposalCanceled",
      "type": "event"
    },
    {
      "anonymous": false,
      "inputs": [
        {
          "indexed": false,
          "internalType": "uint256",
          "name": "proposalId",
          "type": "uint256"
        },
        {
          "indexed": false,
          "internalType": "address",
          "name": "proposer",
          "type": "address"
        },
        {
          "indexed": false,
          "internalType": "address[]",
          "name": "targets",
          "type": "address[]"
        },
        {
          "indexed": false,
          "internalType": "uint256[]",
          "name": "values",
          "type": "uint256[]"
        },
        {
          "indexed": false,
          "internalType": "string[]",
          "name": "signatures",
          "type": "string[]"
        },
        {
          "indexed": false,
          "internalType": "bytes[]",
          "name": "calldatas",
          "type": "bytes[]"
        },
        {
          "indexed": false,
          "internalType": "uint256",
          "name": "startBlock",
          "type": "uint256"
        },
        {
          "indexed": false,
          "internalType": "uint256",
          "name": "endBlock",
          "type": "uint256"
        },
        {
          "indexed": false,
          "internalType": "string",
          "name": "description",
          "type": "string"
        }
      ],
      "name": "ProposalCreated",
      "type": "event"
    },
    {
      "anonymous": false,
      "inputs": [
        {
          "indexed": false,
          "internalType": "uint256",
          "name": "proposalId",
          "type": "uint256"
        }
      ],
      "name": "ProposalExecuted",
      "type": "event"
    },
    {
      "anonymous": false,
      "inputs": [
        {
          "indexed": false,
          "internalType": "uint256",
          "name": "proposalId",
          "type": "uint256"
        },
        {
          "indexed": false,
          "internalType": "uint256",
          "name": "eta",
          "type": "uint256"
        }
      ],
      "name": "ProposalQueued",
      "type": "event"
    },
    {
      "anonymous": false,
      "inputs": [
        {
          "indexed": false,
          "internalType": "uint256",
          "name": "oldProposalThreshold",
          "type": "uint256"
        },
        {
          "indexed": false,
          "internalType": "uint256",
          "name": "newProposalThreshold",
          "type": "uint256"
        }
      ],
      "name": "ProposalThresholdSet",
      "type": "event"
    },
    {
      "anonymous": false,
      "inputs": [
        {
          "indexed": false,
          "internalType": "uint256",
          "name": "oldQuorumNumerator",
          "type": "uint256"
        },
        {
          "indexed": false,
          "internalType": "uint256",
          "name": "newQuorumNumerator",
          "type": "uint256"
        }
      ],
      "name": "QuorumNumeratorUpdated",
      "type": "event"
    },
    {
      "anonymous": false,
      "inputs": [
        {
          "indexed": false,
          "internalType": "address",
          "name": "oldTimelock",
          "type": "address"
        },
        {
          "indexed": false,
          "internalType": "address",
          "name": "newTimelock",
          "type": "address"
        }
      ],
      "name": "TimelockChange",
      "type": "event"
    },
    {
      "anonymous": false,
      "inputs": [
        {
          "indexed": true,
          "internalType": "address",
          "name": "voter",
          "type": "address"
        },
        {
          "indexed": false,
          "internalType": "uint256",
          "name": "proposalId",
          "type": "uint256"
        },
        {
          "indexed": false,
          "internalType": "uint8",
          "name": "support",
          "type": "uint8"
        },
        {
          "indexed": false,
          "internalType": "uint256",
          "name": "weight",
          "type": "uint256"
        },
        {
          "indexed": false,
          "internalType": "string",
          "name": "reason",
          "type": "string"
        }
      ],
      "name": "VoteCast",
      "type": "event"
    },
    {
      "anonymous": false,
      "inputs": [
        {
          "indexed": true,
          "internalType": "address",
          "name": "voter",
          "type": "address"
        },
        {
          "indexed": false,
          "internalType": "uint256",
          "name": "proposalId",
          "type": "uint256"
        },
        {
          "indexed": false,
          "internalType": "uint8",
          "name": "support",
          "type": "uint8"
        },
        {
          "indexed": false,
          "internalType": "uint256",
          "name": "weight",
          "type": "uint256"
        },
        {
          "indexed": false,
          "internalType": "string",
          "name": "reason",
          "type": "string"
        },
        {
          "indexed": false,
          "internalType": "bytes",
          "name": "params",
          "type": "bytes"
        }
      ],
      "name": "VoteCastWithParams",
      "type": "event"
    },
    {
      "anonymous": false,
      "inputs": [
        {
          "indexed": false,
          "internalType": "uint256",
          "name": "oldVotingDelay",
          "type": "uint256"
        },
        {
          "indexed": false,
          "internalType": "uint256",
          "name": "newVotingDelay",
          "type": "uint256"
        }
      ],
      "name": "VotingDelaySet",
      "type": "event"
    },
    {
      "anonymous": false,
      "inputs": [
        {
          "indexed": false,
          "internalType": "uint256",
          "name": "oldVotingPeriod",
          "type": "uint256"
        },
        {
          "indexed": false,
          "internalType": "uint256",
          "name": "newVotingPeriod",
          "type": "uint256"
        }
      ],
      "name": "VotingPeriodSet",
      "type": "event"
    },
    {
      "inputs": [],
      "name": "BALLOT_TYPEHASH",
      "outputs": [
        {
          "internalType": "bytes32",
          "name": "",
          "type": "bytes32"
        }
      ],
      "stateMutability": "view",
      "type": "function"
    },
    {
      "inputs": [],
      "name": "COUNTING_MODE",
      "outputs": [
        {
          "internalType": "string",
          "name": "",
          "type": "string"
        }
      ],
      "stateMutability": "pure",
      "type": "function"
    },
    {
      "inputs": [],
      "name": "EXTENDED_BALLOT_TYPEHASH",
      "outputs": [
        {
          "internalType": "bytes32",
          "name": "",
          "type": "bytes32"
        }
      ],
      "stateMutability": "view",
      "type": "function"
    },
    {
      "inputs": [
        {
          "internalType": "uint256",
          "name": "proposalId",
          "type": "uint256"
        },
        {
          "internalType": "uint8",
          "name": "support",
          "type": "uint8"
        }
      ],
      "name": "castVote",
      "outputs": [
        {
          "internalType": "uint256",
          "name": "",
          "type": "uint256"
        }
      ],
      "stateMutability": "nonpayable",
      "type": "function"
    },
    {
      "inputs": [
        {
          "internalType": "uint256",
          "name": "proposalId",
          "type": "uint256"
        },
        {
          "internalType": "uint8",
          "name": "support",
          "type": "uint8"
        },
        {
          "internalType": "uint8",
          "name": "v",
          "type": "uint8"
        },
        {
          "internalType": "bytes32",
          "name": "r",
          "type": "bytes32"
        },
        {
          "internalType": "bytes32",
          "name": "s",
          "type": "bytes32"
        }
      ],
      "name": "castVoteBySig",
      "outputs": [
        {
          "internalType": "uint256",
          "name": "",
          "type": "uint256"
        }
      ],
      "stateMutability": "nonpayable",
      "type": "function"
    },
    {
      "inputs": [
        {
          "internalType": "uint256",
          "name": "proposalId",
          "type": "uint256"
        },
        {
          "internalType": "uint8",
          "name": "support",
          "type": "uint8"
        },
        {
          "internalType": "string",
          "name": "reason",
          "type": "string"
        }
      ],
      "name": "castVoteWithReason",
      "outputs": [
        {
          "internalType": "uint256",
          "name": "",
          "type": "uint256"
        }
      ],
      "stateMutability": "nonpayable",
      "type": "function"
    },
    {
      "inputs": [
        {
          "internalType": "uint256",
          "name": "proposalId",
          "type": "uint256"
        },
        {
          "internalType": "uint8",
          "name": "support",
          "type": "uint8"
        },
        {
          "internalType": "string",
          "name": "reason",
          "type": "string"
        },
        {
          "internalType": "bytes",
          "name": "params",
          "type": "bytes"
        }
      ],
      "name": "castVoteWithReasonAndParams",
      "outputs": [
        {
          "internalType": "uint256",
          "name": "",
          "type": "uint256"
        }
      ],
      "stateMutability": "nonpayable",
      "type": "function"
    },
    {
      "inputs": [
        {
          "internalType": "uint256",
          "name": "proposalId",
          "type": "uint256"
        },
        {
          "internalType": "uint8",
          "name": "support",
          "type": "uint8"
        },
        {
          "internalType": "string",
          "name": "reason",
          "type": "string"
        },
        {
          "internalType": "bytes",
          "name": "params",
          "type": "bytes"
        },
        {
          "internalType": "uint8",
          "name": "v",
          "type": "uint8"
        },
        {
          "internalType": "bytes32",
          "name": "r",
          "type": "bytes32"
        },
        {
          "internalType": "bytes32",
          "name": "s",
          "type": "bytes32"
        }
      ],
      "name": "castVoteWithReasonAndParamsBySig",
      "outputs": [
        {
          "internalType": "uint256",
          "name": "",
          "type": "uint256"
        }
      ],
      "stateMutability": "nonpayable",
      "type": "function"
    },
    {
      "inputs": [
        {
          "internalType": "address[]",
          "name": "targets",
          "type": "address[]"
        },
        {
          "internalType": "uint256[]",
          "name": "values",
          "type": "uint256[]"
        },
        {
          "internalType": "bytes[]",
          "name": "calldatas",
          "type": "bytes[]"
        },
        {
          "internalType": "bytes32",
          "name": "descriptionHash",
          "type": "bytes32"
        }
      ],
      "name": "execute",
      "outputs": [
        {
          "internalType": "uint256",
          "name": "",
          "type": "uint256"
        }
      ],
      "stateMutability": "payable",
      "type": "function"
    },
    {
      "inputs": [
        {
          "internalType": "address",
          "name": "account",
          "type": "address"
        },
        {
          "internalType": "uint256",
          "name": "blockNumber",
          "type": "uint256"
        }
      ],
      "name": "getVotes",
      "outputs": [
        {
          "internalType": "uint256",
          "name": "",
          "type": "uint256"
        }
      ],
      "stateMutability": "view",
      "type": "function"
    },
    {
      "inputs": [
        {
          "internalType": "address",
          "name": "account",
          "type": "address"
        },
        {
          "internalType": "uint256",
          "name": "blockNumber",
          "type": "uint256"
        },
        {
          "internalType": "bytes",
          "name": "params",
          "type": "bytes"
        }
      ],
      "name": "getVotesWithParams",
      "outputs": [
        {
          "internalType": "uint256",
          "name": "",
          "type": "uint256"
        }
      ],
      "stateMutability": "view",
      "type": "function"
    },
    {
      "inputs": [
        {
          "internalType": "uint256",
          "name": "proposalId",
          "type": "uint256"
        },
        {
          "internalType": "address",
          "name": "account",
          "type": "address"
        }
      ],
      "name": "hasVoted",
      "outputs": [
        {
          "internalType": "bool",
          "name": "",
          "type": "bool"
        }
      ],
      "stateMutability": "view",
      "type": "function"
    },
    {
      "inputs": [
        {
          "internalType": "address[]",
          "name": "targets",
          "type": "address[]"
        },
        {
          "internalType": "uint256[]",
          "name": "values",
          "type": "uint256[]"
        },
        {
          "internalType": "bytes[]",
          "name": "calldatas",
          "type": "bytes[]"
        },
        {
          "internalType": "bytes32",
          "name": "descriptionHash",
          "type": "bytes32"
        }
      ],
      "name": "hashProposal",
      "outputs": [
        {
          "internalType": "uint256",
          "name": "",
          "type": "uint256"
        }
      ],
      "stateMutability": "pure",
      "type": "function"
    },
    {
      "inputs": [],
      "name": "name",
      "outputs": [
        {
          "internalType": "string",
          "name": "",
          "type": "string"
        }
      ],
      "stateMutability": "view",
      "type": "function"
    },
    {
      "inputs": [
        {
          "internalType": "address",
          "name": "",
          "type": "address"
        },
        {
          "internalType": "address",
          "name": "",
          "type": "address"
        },
        {
          "internalType": "uint256[]",
          "name": "",
          "type": "uint256[]"
        },
        {
          "internalType": "uint256[]",
          "name": "",
          "type": "uint256[]"
        },
        {
          "internalType": "bytes",
          "name": "",
          "type": "bytes"
        }
      ],
      "name": "onERC1155BatchReceived",
      "outputs": [
        {
          "internalType": "bytes4",
          "name": "",
          "type": "bytes4"
        }
      ],
      "stateMutability": "nonpayable",
      "type": "function"
    },
    {
      "inputs": [
        {
          "internalType": "address",
          "name": "",
          "type": "address"
        },
        {
          "internalType": "address",
          "name": "",
          "type": "address"
        },
        {
          "internalType": "uint256",
          "name": "",
          "type": "uint256"
        },
        {
          "internalType": "uint256",
          "name": "",
          "type": "uint256"
        },
        {
          "internalType": "bytes",
          "name": "",
          "type": "bytes"
        }
      ],
      "name": "onERC1155Received",
      "outputs": [
        {
          "internalType": "bytes4",
          "name": "",
          "type": "bytes4"
        }
      ],
      "stateMutability": "nonpayable",
      "type": "function"
    },
    {
      "inputs": [
        {
          "internalType": "address",
          "name": "",
          "type": "address"
        },
        {
          "internalType": "address",
          "name": "",
          "type": "address"
        },
        {
          "internalType": "uint256",
          "name": "",
          "type": "uint256"
        },
        {
          "internalType": "bytes",
          "name": "",
          "type": "bytes"
        }
      ],
      "name": "onERC721Received",
      "outputs": [
        {
          "internalType": "bytes4",
          "name": "",
          "type": "bytes4"
        }
      ],
      "stateMutability": "nonpayable",
      "type": "function"
    },
    {
      "inputs": [
        {
          "internalType": "uint256",
          "name": "proposalId",
          "type": "uint256"
        }
      ],
      "name": "proposalDeadline",
      "outputs": [
        {
          "internalType": "uint256",
          "name": "",
          "type": "uint256"
        }
      ],
      "stateMutability": "view",
      "type": "function"
    },
    {
      "inputs": [
        {
          "internalType": "uint256",
          "name": "proposalId",
          "type": "uint256"
        }
      ],
      "name": "proposalEta",
      "outputs": [
        {
          "internalType": "uint256",
          "name": "",
          "type": "uint256"
        }
      ],
      "stateMutability": "view",
      "type": "function"
    },
    {
      "inputs": [
        {
          "internalType": "uint256",
          "name": "proposalId",
          "type": "uint256"
        }
      ],
      "name": "proposalSnapshot",
      "outputs": [
        {
          "internalType": "uint256",
          "name": "",
          "type": "uint256"
        }
      ],
      "stateMutability": "view",
      "type": "function"
    },
    {
      "inputs": [],
      "name": "proposalThreshold",
      "outputs": [
        {
          "internalType": "uint256",
          "name": "",
          "type": "uint256"
        }
      ],
      "stateMutability": "view",
      "type": "function"
    },
    {
      "inputs": [
        {
          "internalType": "uint256",
          "name": "proposalId",
          "type": "uint256"
        }
      ],
      "name": "proposalVotes",
      "outputs": [
        {
          "internalType": "uint256",
          "name": "againstVotes",
          "type": "uint256"
        },
        {
          "internalType": "uint256",
          "name": "forVotes",
          "type": "uint256"
        },
        {
          "internalType": "uint256",
          "name": "abstainVotes",
          "type": "uint256"
        }
      ],
      "stateMutability": "view",
      "type": "function"
    },
    {
      "inputs": [
        {
          "internalType": "address[]",
          "name": "targets",
          "type": "address[]"
        },
        {
          "internalType": "uint256[]",
          "name": "values",
          "type": "uint256[]"
        },
        {
          "internalType": "bytes[]",
          "name": "calldatas",
          "type": "bytes[]"
        },
        {
          "internalType": "string",
          "name": "description",
          "type": "string"
        }
      ],
      "name": "propose",
      "outputs": [
        {
          "internalType": "uint256",
          "name": "",
          "type": "uint256"
        }
      ],
      "stateMutability": "nonpayable",
      "type": "function"
    },
    {
      "inputs": [
        {
          "internalType": "address[]",
          "name": "targets",
          "type": "address[]"
        },
        {
          "internalType": "uint256[]",
          "name": "values",
          "type": "uint256[]"
        },
        {
          "internalType": "bytes[]",
          "name": "calldatas",
          "type": "bytes[]"
        },
        {
          "internalType": "bytes32",
          "name": "descriptionHash",
          "type": "bytes32"
        }
      ],
      "name": "queue",
      "outputs": [
        {
          "internalType": "uint256",
          "name": "",
          "type": "uint256"
        }
      ],
      "stateMutability": "nonpayable",
      "type": "function"
    },
    {
      "inputs": [
        {
          "internalType": "uint256",
          "name": "blockNumber",
          "type": "uint256"
        }
      ],
      "name": "quorum",
      "outputs": [
        {
          "internalType": "uint256",
          "name": "",
          "type": "uint256"
        }
      ],
      "stateMutability": "view",
      "type": "function"
    },
    {
      "inputs": [],
      "name": "quorumDenominator",
      "outputs": [
        {
          "internalType": "uint256",
          "name": "",
          "type": "uint256"
        }
      ],
      "stateMutability": "view",
      "type": "function"
    },
    {
      "inputs": [
        {
          "internalType": "uint256",
          "name": "blockNumber",
          "type": "uint256"
        }
      ],
      "name": "quorumNumerator",
      "outputs": [
        {
          "internalType": "uint256",
          "name": "",
          "type": "uint256"
        }
      ],
      "stateMutability": "view",
      "type": "function"
    },
    {
      "inputs": [],
      "name": "quorumNumerator",
      "outputs": [
        {
          "internalType": "uint256",
          "name": "",
          "type": "uint256"
        }
      ],
      "stateMutability": "view",
      "type": "function"
    },
    {
      "inputs": [
        {
          "internalType": "address",
          "name": "target",
          "type": "address"
        },
        {
          "internalType": "uint256",
          "name": "value",
          "type": "uint256"
        },
        {
          "internalType": "bytes",
          "name": "data",
          "type": "bytes"
        }
      ],
      "name": "relay",
      "outputs": [],
      "stateMutability": "nonpayable",
      "type": "function"
    },
    {
      "inputs": [
        {
          "internalType": "uint256",
          "name": "newProposalThreshold",
          "type": "uint256"
        }
      ],
      "name": "setProposalThreshold",
      "outputs": [],
      "stateMutability": "nonpayable",
      "type": "function"
    },
    {
      "inputs": [
        {
          "internalType": "uint256",
          "name": "newVotingDelay",
          "type": "uint256"
        }
      ],
      "name": "setVotingDelay",
      "outputs": [],
      "stateMutability": "nonpayable",
      "type": "function"
    },
    {
      "inputs": [
        {
          "internalType": "uint256",
          "name": "newVotingPeriod",
          "type": "uint256"
        }
      ],
      "name": "setVotingPeriod",
      "outputs": [],
      "stateMutability": "nonpayable",
      "type": "function"
    },
    {
      "inputs": [
        {
          "internalType": "uint256",
          "name": "proposalId",
          "type": "uint256"
        }
      ],
      "name": "state",
      "outputs": [
        {
          "internalType": "enum IGovernor.ProposalState",
          "name": "",
          "type": "uint8"
        }
      ],
      "stateMutability": "view",
      "type": "function"
    },
    {
      "inputs": [
        {
          "internalType": "bytes4",
          "name": "interfaceId",
          "type": "bytes4"
        }
      ],
      "name": "supportsInterface",
      "outputs": [
        {
          "internalType": "bool",
          "name": "",
          "type": "bool"
        }
      ],
      "stateMutability": "view",
      "type": "function"
    },
    {
      "inputs": [],
      "name": "timelock",
      "outputs": [
        {
          "internalType": "address",
          "name": "",
          "type": "address"
        }
      ],
      "stateMutability": "view",
      "type": "function"
    },
    {
      "inputs": [],
      "name": "token",
      "outputs": [
        {
          "internalType": "contract IVotes",
          "name": "",
          "type": "address"
        }
      ],
      "stateMutability": "view",
      "type": "function"
    },
    {
      "inputs": [
        {
          "internalType": "uint256",
          "name": "newQuorumNumerator",
          "type": "uint256"
        }
      ],
      "name": "updateQuorumNumerator",
      "outputs": [],
      "stateMutability": "nonpayable",
      "type": "function"
    },
    {
      "inputs": [
        {
          "internalType": "contract TimelockController",
          "name": "newTimelock",
          "type": "address"
        }
      ],
      "name": "updateTimelock",
      "outputs": [],
      "stateMutability": "nonpayable",
      "type": "function"
    },
    {
      "inputs": [],
      "name": "version",
      "outputs": [
        {
          "internalType": "string",
          "name": "",
          "type": "string"
        }
      ],
      "stateMutability": "view",
      "type": "function"
    },
    {
      "inputs": [],
      "name": "votingDelay",
      "outputs": [
        {
          "internalType": "uint256",
          "name": "",
          "type": "uint256"
        }
      ],
      "stateMutability": "view",
      "type": "function"
    },
    {
      "inputs": [],
      "name": "votingPeriod",
      "outputs": [
        {
          "internalType": "uint256",
          "name": "",
          "type": "uint256"
        }
      ],
      "stateMutability": "view",
      "type": "function"
    },
    {
      "stateMutability": "payable",
      "type": "receive"
    }
  ],
  "transactionHash": "0x9b8f52d749199c8bd6d6267e9e4c3180dd8e03ff6d73481f2451e3c3fe21ff0a",
  "args": [
    "0x5FbDB2315678afecb367f032d93F642f64180aa3",
    "0x9fE46736679d2D9a65F0992F2272dE9f3c7fa6e0",
    4,
    5,
    1
  ],
  "numDeployments": 1,
  "solcInputHash": "19b8307534fd142aea28b98ad33bec03",
  "bytecode": "0x6101606040523480156200001257600080fd5b506040516200805c3803806200805c833981810160405281019062000038919062000b4e565b83600486858560006040518060400160405280601081526020017f476f7665726e6572436f6e7472616374000000000000000000000000000000008152508062000087620001f460201b60201c565b60008280519060200120905060008280519060200120905060007f8b73c3c69bb8fe3d512ecc4cf759cc79239f7b179b0ffacaa9a75d522b39400f90508260e081815250508161010081815250504660a08181525050620000f08184846200023160201b60201c565b608081815250503073ffffffffffffffffffffffffffffffffffffffff1660c08173ffffffffffffffffffffffffffffffffffffffff1660601b81525050806101208181525050505050505080600090805190602001906200015492919062000a59565b505062000167836200026d60201b60201c565b6200017882620002b460201b60201c565b62000189816200034160201b60201c565b5050508073ffffffffffffffffffffffffffffffffffffffff166101408173ffffffffffffffffffffffffffffffffffffffff1660601b8152505050620001d6816200038860201b60201c565b50620001e8816200056760201b60201c565b505050505050620010f2565b60606040518060400160405280600181526020017f3100000000000000000000000000000000000000000000000000000000000000815250905090565b600083838346306040516020016200024e95949392919062000ccc565b6040516020818303038152906040528051906020012090509392505050565b7fc565b045403dc03c2eea82b81a0465edad9e2e7fc4d97e11421c209da93d7a9360045482604051620002a292919062000db1565b60405180910390a18060048190555050565b60008111620002fa576040517f08c379a0000000000000000000000000000000000000000000000000000000008152600401620002f19062000d4b565b60405180910390fd5b7f7e3f7f0708a84de9203036abaa450dccc85ad5ff52f78c170f3edb55cf5e8828600554826040516200032f92919062000db1565b60405180910390a18060058190555050565b7fccb45da8d5717e6c4544694297c4ba5cf151d455c9bb0ed4fc7a38411bc05461600654826040516200037692919062000db1565b60405180910390a18060068190555050565b620003986200060860201b60201c565b811115620003dd576040517f08c379a0000000000000000000000000000000000000000000000000000000008152600401620003d49062000d29565b60405180910390fd5b6000620003ef6200061160201b60201c565b9050600081141580156200040b57506000600960000180549050145b156200050b5760096000016040518060400160405280600063ffffffff16815260200162000444846200064960201b62001f841760201c565b7bffffffffffffffffffffffffffffffffffffffffffffffffffffffff168152509080600181540180825580915050600190039060005260206000200160009091909190915060008201518160000160006101000a81548163ffffffff021916908363ffffffff16021790555060208201518160000160046101000a8154817bffffffffffffffffffffffffffffffffffffffffffffffffffffffff02191690837bffffffffffffffffffffffffffffffffffffffffffffffffffffffff16021790555050505b62000526826009620006b760201b62001fef1790919060201c565b50507f0553476bf02ef2726e8ce5ced78d63e26e602e4a2257b1f559418e24b463399781836040516200055b92919062000db1565b60405180910390a15050565b7f08f74ea46ef7894f65eabfb5e6e695de773a000b47c529ab559178069b226401600a60009054906101000a900473ffffffffffffffffffffffffffffffffffffffff1682604051620005bc92919062000c9f565b60405180910390a180600a60006101000a81548173ffffffffffffffffffffffffffffffffffffffff021916908373ffffffffffffffffffffffffffffffffffffffff16021790555050565b60006064905090565b6000806009600001805490501462000640576200063a60096200093d60201b6200223d1760201c565b62000644565b6008545b905090565b60007bffffffffffffffffffffffffffffffffffffffffffffffffffffffff8016821115620006af576040517f08c379a0000000000000000000000000000000000000000000000000000000008152600401620006a69062000d6d565b60405180910390fd5b819050919050565b6000806000846000018054905090506000620006d9866200093d60201b60201c565b90506000821180156200075957504386600001600184620006fb919062000def565b8154811062000733577f4e487b7100000000000000000000000000000000000000000000000000000000600052603260045260246000fd5b9060005260206000200160000160009054906101000a900463ffffffff1663ffffffff16145b15620008215762000775856200064960201b62001f841760201c565b8660000160018462000788919062000def565b81548110620007c0577f4e487b7100000000000000000000000000000000000000000000000000000000600052603260045260246000fd5b9060005260206000200160000160046101000a8154817bffffffffffffffffffffffffffffffffffffffffffffffffffffffff02191690837bffffffffffffffffffffffffffffffffffffffffffffffffffffffff1602179055506200092e565b856000016040518060400160405280620008464362000a0360201b620022fe1760201c565b63ffffffff16815260200162000867886200064960201b62001f841760201c565b7bffffffffffffffffffffffffffffffffffffffffffffffffffffffff168152509080600181540180825580915050600190039060005260206000200160009091909190915060008201518160000160006101000a81548163ffffffff021916908363ffffffff16021790555060208201518160000160046101000a8154817bffffffffffffffffffffffffffffffffffffffffffffffffffffffff02191690837bffffffffffffffffffffffffffffffffffffffffffffffffffffffff16021790555050505b80859350935050509250929050565b6000808260000180549050905060008114620009da578260000160018262000966919062000def565b815481106200099e577f4e487b7100000000000000000000000000000000000000000000000000000000600052603260045260246000fd5b9060005260206000200160000160049054906101000a90047bffffffffffffffffffffffffffffffffffffffffffffffffffffffff16620009dd565b60005b7bffffffffffffffffffffffffffffffffffffffffffffffffffffffff16915050919050565b600063ffffffff801682111562000a51576040517f08c379a000000000000000000000000000000000000000000000000000000000815260040162000a489062000d8f565b60405180910390fd5b819050919050565b82805462000a679062000eae565b90600052602060002090601f01602090048101928262000a8b576000855562000ad7565b82601f1062000aa657805160ff191683800117855562000ad7565b8280016001018555821562000ad7579182015b8281111562000ad657825182559160200191906001019062000ab9565b5b50905062000ae6919062000aea565b5090565b5b8082111562000b0557600081600090555060010162000aeb565b5090565b60008151905062000b1a81620010a4565b92915050565b60008151905062000b3181620010be565b92915050565b60008151905062000b4881620010d8565b92915050565b600080600080600060a0868803121562000b6757600080fd5b600062000b778882890162000b09565b955050602062000b8a8882890162000b20565b945050604062000b9d8882890162000b37565b935050606062000bb08882890162000b37565b925050608062000bc38882890162000b37565b9150509295509295909350565b62000bdb8162000e2a565b82525050565b62000bec8162000e52565b82525050565b600062000c0160438362000dde565b915062000c0e8262000f42565b606082019050919050565b600062000c2860278362000dde565b915062000c358262000fb7565b604082019050919050565b600062000c4f60278362000dde565b915062000c5c8262001006565b604082019050919050565b600062000c7660268362000dde565b915062000c838262001055565b604082019050919050565b62000c998162000ea4565b82525050565b600060408201905062000cb6600083018562000bd0565b62000cc5602083018462000bd0565b9392505050565b600060a08201905062000ce3600083018862000be1565b62000cf2602083018762000be1565b62000d01604083018662000be1565b62000d10606083018562000c8e565b62000d1f608083018462000bd0565b9695505050505050565b6000602082019050818103600083015262000d448162000bf2565b9050919050565b6000602082019050818103600083015262000d668162000c19565b9050919050565b6000602082019050818103600083015262000d888162000c40565b9050919050565b6000602082019050818103600083015262000daa8162000c67565b9050919050565b600060408201905062000dc8600083018562000c8e565b62000dd7602083018462000c8e565b9392505050565b600082825260208201905092915050565b600062000dfc8262000ea4565b915062000e098362000ea4565b92508282101562000e1f5762000e1e62000ee4565b5b828203905092915050565b600062000e378262000e84565b9050919050565b600062000e4b8262000e84565b9050919050565b6000819050919050565b600062000e698262000e2a565b9050919050565b600062000e7d8262000e3e565b9050919050565b600073ffffffffffffffffffffffffffffffffffffffff82169050919050565b6000819050919050565b6000600282049050600182168062000ec757607f821691505b6020821081141562000ede5762000edd62000f13565b5b50919050565b7f4e487b7100000000000000000000000000000000000000000000000000000000600052601160045260246000fd5b7f4e487b7100000000000000000000000000000000000000000000000000000000600052602260045260246000fd5b7f476f7665726e6f72566f74657351756f72756d4672616374696f6e3a2071756f60008201527f72756d4e756d657261746f72206f7665722071756f72756d44656e6f6d696e6160208201527f746f720000000000000000000000000000000000000000000000000000000000604082015250565b7f476f7665726e6f7253657474696e67733a20766f74696e6720706572696f642060008201527f746f6f206c6f7700000000000000000000000000000000000000000000000000602082015250565b7f53616665436173743a2076616c756520646f65736e27742066697420696e203260008201527f3234206269747300000000000000000000000000000000000000000000000000602082015250565b7f53616665436173743a2076616c756520646f65736e27742066697420696e203360008201527f3220626974730000000000000000000000000000000000000000000000000000602082015250565b620010af8162000e5c565b8114620010bb57600080fd5b50565b620010c98162000e70565b8114620010d557600080fd5b50565b620010e38162000ea4565b8114620010ef57600080fd5b50565b60805160a05160c05160601c60e05161010051610120516101405160601c616efb6200116160003960008181611f620152818161322101526134a401526000613779015260006137bb0152600061379a015260006136cf015260006137250152600061374e0152616efb6000f3fe60806040526004361061024a5760003560e01c80637b3c71d311610139578063c28bc2fa116100b6578063ea0217cf1161007a578063ea0217cf146109cb578063eb9019d4146109f4578063ece40cc114610a31578063f23a6e6114610a5a578063f8ce560a14610a97578063fc0c546a14610ad457610290565b8063c28bc2fa146108e4578063c59057e41461090d578063d33219b41461094a578063dd4e2ba514610975578063deaaa7cc146109a057610290565b8063a890c910116100fd578063a890c910146107d9578063ab58fb8e14610802578063b58131b01461083f578063bc197c811461086a578063c01f9e37146108a757610290565b80637b3c71d3146106cc5780637d5e81e21461070957806397c3d334146107465780639a802a6d14610771578063a7713a70146107ae57610290565b80633932abb1116101c757806354fd4d501161018b57806354fd4d50146105c157806356781388146105ec5780635f398a141461062957806360c4247f1461066657806370b0f660146106a357610290565b80633932abb1146104a05780633bccf4fd146104cb5780633e4f49e6146105085780634385963214610545578063544ffc9c1461058257610290565b8063150b7a021161020e578063150b7a021461038e578063160cbed7146103cb5780632656227d146104085780632d63f693146104385780632fe3e2611461047557610290565b806301ffc9a71461029557806302a251a3146102d257806303420181146102fd57806306f3f9e61461033a57806306fdde031461036357610290565b36610290573073ffffffffffffffffffffffffffffffffffffffff1661026e610aff565b73ffffffffffffffffffffffffffffffffffffffff161461028e57600080fd5b005b600080fd5b3480156102a157600080fd5b506102bc60048036038101906102b79190614de3565b610b0e565b6040516102c99190615a80565b60405180910390f35b3480156102de57600080fd5b506102e7610b20565b6040516102f49190615f0b565b60405180910390f35b34801561030957600080fd5b50610324600480360381019061031f9190615003565b610b2f565b6040516103319190615f0b565b60405180910390f35b34801561034657600080fd5b50610361600480360381019061035c9190614e35565b610c14565b005b34801561036f57600080fd5b50610378610d10565b6040516103859190615c29565b60405180910390f35b34801561039a57600080fd5b506103b560048036038101906103b09190614a0a565b610da2565b6040516103c29190615bd8565b60405180910390f35b3480156103d757600080fd5b506103f260048036038101906103ed9190614c23565b610db6565b6040516103ff9190615f0b565b60405180910390f35b610422600480360381019061041d9190614c23565b6110da565b60405161042f9190615f0b565b60405180910390f35b34801561044457600080fd5b5061045f600480360381019061045a9190614e35565b6112bf565b60405161046c9190615f0b565b60405180910390f35b34801561048157600080fd5b5061048a61132d565b6040516104979190615a9b565b60405180910390f35b3480156104ac57600080fd5b506104b5611351565b6040516104c29190615f0b565b60405180910390f35b3480156104d757600080fd5b506104f260048036038101906104ed91906150d5565b611360565b6040516104ff9190615f0b565b60405180910390f35b34801561051457600080fd5b5061052f600480360381019061052a9190614e35565b6113ea565b60405161053c9190615c0e565b60405180910390f35b34801561055157600080fd5b5061056c60048036038101906105679190614e87565b6113fc565b6040516105799190615a80565b60405180910390f35b34801561058e57600080fd5b506105a960048036038101906105a49190614e35565b611467565b6040516105b893929190615fff565b60405180910390f35b3480156105cd57600080fd5b506105d661149f565b6040516105e39190615c29565b60405180910390f35b3480156105f857600080fd5b50610613600480360381019061060e9190614ec3565b6114dc565b6040516106209190615f0b565b60405180910390f35b34801561063557600080fd5b50610650600480360381019061064b9190614f6b565b61150d565b60405161065d9190615f0b565b60405180910390f35b34801561067257600080fd5b5061068d60048036038101906106889190614e35565b611577565b60405161069a9190615f0b565b60405180910390f35b3480156106af57600080fd5b506106ca60048036038101906106c59190614e35565b6116ea565b005b3480156106d857600080fd5b506106f360048036038101906106ee9190614eff565b6117e6565b6040516107009190615f0b565b60405180910390f35b34801561071557600080fd5b50610730600480360381019061072b9190614cce565b61184e565b60405161073d9190615f0b565b60405180910390f35b34801561075257600080fd5b5061075b611866565b6040516107689190615f0b565b60405180910390f35b34801561077d57600080fd5b5061079860048036038101906107939190614bbc565b61186f565b6040516107a59190615f0b565b60405180910390f35b3480156107ba57600080fd5b506107c3611885565b6040516107d09190615f0b565b60405180910390f35b3480156107e557600080fd5b5061080060048036038101906107fb9190614e0c565b6118ae565b005b34801561080e57600080fd5b5061082960048036038101906108249190614e35565b6119aa565b6040516108369190615f0b565b60405180910390f35b34801561084b57600080fd5b50610854611a86565b6040516108619190615f0b565b60405180910390f35b34801561087657600080fd5b50610891600480360381019061088c919061494b565b611a95565b60405161089e9190615bd8565b60405180910390f35b3480156108b357600080fd5b506108ce60048036038101906108c99190614e35565b611aaa565b6040516108db9190615f0b565b60405180910390f35b3480156108f057600080fd5b5061090b60048036038101906109069190614b50565b611b18565b005b34801561091957600080fd5b50610934600480360381019061092f9190614c23565b611c5e565b6040516109419190615f0b565b60405180910390f35b34801561095657600080fd5b5061095f611c9a565b60405161096c91906158db565b60405180910390f35b34801561098157600080fd5b5061098a611cc4565b6040516109979190615c29565b60405180910390f35b3480156109ac57600080fd5b506109b5611d01565b6040516109c29190615a9b565b60405180910390f35b3480156109d757600080fd5b506109f260048036038101906109ed9190614e35565b611d25565b005b348015610a0057600080fd5b50610a1b6004803603810190610a169190614b14565b611e21565b604051610a289190615f0b565b60405180910390f35b348015610a3d57600080fd5b50610a586004803603810190610a539190614e35565b611e3d565b005b348015610a6657600080fd5b50610a816004803603810190610a7c9190614a85565b611f39565b604051610a8e9190615bd8565b60405180910390f35b348015610aa357600080fd5b50610abe6004803603810190610ab99190614e35565b611f4e565b604051610acb9190615f0b565b60405180910390f35b348015610ae057600080fd5b50610ae9611f60565b604051610af69190615bf3565b60405180910390f35b6000610b09612351565b905090565b6000610b198261237b565b9050919050565b6000610b2a6123f5565b905090565b600080610bb2610baa7fb3b3f3b703cd84ce352197dcff232b1b5d3cfb2025ce47cf04742d0651f1af888c8c8c8c604051610b6b929190615874565b60405180910390208b80519060200120604051602001610b8f959493929190615b40565b604051602081830303815290604052805190602001206123ff565b868686612419565b9050610c058a828b8b8b8080601f016020809104026020016040519081016040528093929190818152602001838380828437600081840152601f19601f820116905080830192505050505050508a612444565b91505098975050505050505050565b610c1c610aff565b73ffffffffffffffffffffffffffffffffffffffff16610c3a61264d565b73ffffffffffffffffffffffffffffffffffffffff1614610c90576040517f08c379a0000000000000000000000000000000000000000000000000000000008152600401610c8790615c6b565b60405180910390fd5b3073ffffffffffffffffffffffffffffffffffffffff16610caf610aff565b73ffffffffffffffffffffffffffffffffffffffff1614610d04576000610cd4612655565b604051610ce2929190615874565b604051809103902090505b80610cf86002612662565b14610d0257610ced565b505b610d0d8161273e565b50565b606060008054610d1f90616619565b80601f0160208091040260200160405190810160405280929190818152602001828054610d4b90616619565b8015610d985780601f10610d6d57610100808354040283529160200191610d98565b820191906000526020600020905b815481529060010190602001808311610d7b57829003601f168201915b5050505050905090565b600063150b7a0260e01b9050949350505050565b600080610dc586868686611c5e565b905060046007811115610e01577f4e487b7100000000000000000000000000000000000000000000000000000000600052602160045260246000fd5b610e0a826113ea565b6007811115610e42577f4e487b7100000000000000000000000000000000000000000000000000000000600052602160045260246000fd5b14610e82576040517f08c379a0000000000000000000000000000000000000000000000000000000008152600401610e7990615e2b565b60405180910390fd5b6000600a60009054906101000a900473ffffffffffffffffffffffffffffffffffffffff1673ffffffffffffffffffffffffffffffffffffffff1663f27a0c926040518163ffffffff1660e01b815260040160206040518083038186803b158015610eec57600080fd5b505afa158015610f00573d6000803e3d6000fd5b505050506040513d601f19601f82011682018060405250810190610f249190614e5e565b9050600a60009054906101000a900473ffffffffffffffffffffffffffffffffffffffff1673ffffffffffffffffffffffffffffffffffffffff1663b1c5f4278888886000896040518663ffffffff1660e01b8152600401610f8a9594939291906159a2565b60206040518083038186803b158015610fa257600080fd5b505afa158015610fb6573d6000803e3d6000fd5b505050506040513d601f19601f82011682018060405250810190610fda9190614dba565b600b600084815260200190815260200160002081905550600a60009054906101000a900473ffffffffffffffffffffffffffffffffffffffff1673ffffffffffffffffffffffffffffffffffffffff16638f2a0bb0888888600089876040518763ffffffff1660e01b815260040161105796959493929190615a0a565b600060405180830381600087803b15801561107157600080fd5b505af1158015611085573d6000803e3d6000fd5b505050507f9a2e42fd6722813d69113e7d0079d3d940171428df7373df9c7f7617cfda28928282426110b79190616342565b6040516110c5929190615fd6565b60405180910390a18192505050949350505050565b6000806110e986868686611c5e565b905060006110f6826113ea565b905060046007811115611132577f4e487b7100000000000000000000000000000000000000000000000000000000600052602160045260246000fd5b81600781111561116b577f4e487b7100000000000000000000000000000000000000000000000000000000600052602160045260246000fd5b14806111e75750600560078111156111ac577f4e487b7100000000000000000000000000000000000000000000000000000000600052602160045260246000fd5b8160078111156111e5577f4e487b7100000000000000000000000000000000000000000000000000000000600052602160045260246000fd5b145b611226576040517f08c379a000000000000000000000000000000000000000000000000000000000815260040161121d90615e2b565b60405180910390fd5b600180600084815260200190815260200160002060020160006101000a81548160ff0219169083151502179055507f712ae1383f79ac853f8d882153778e0260ef8f03b504e2866e0593e04d2b291f826040516112839190615f0b565b60405180910390a161129882888888886128f2565b6112a58288888888612a22565b6112b28288888888612a36565b8192505050949350505050565b600061131c600160008481526020019081526020016000206000016040518060200160405290816000820160009054906101000a900467ffffffffffffffff1667ffffffffffffffff1667ffffffffffffffff1681525050612a91565b67ffffffffffffffff169050919050565b7fb3b3f3b703cd84ce352197dcff232b1b5d3cfb2025ce47cf04742d0651f1af8881565b600061135b612a9f565b905090565b6000806113c16113b97f150214d74d59b7d1e90c73fc22ef3d991dd0a76b046543d4d80ab92d2a50328f898960405160200161139e93929190615b09565b604051602081830303815290604052805190602001206123ff565b868686612419565b90506113de87828860405180602001604052806000815250612aa9565b91505095945050505050565b60006113f582612ac9565b9050919050565b60006007600084815260200190815260200160002060030160008373ffffffffffffffffffffffffffffffffffffffff1673ffffffffffffffffffffffffffffffffffffffff16815260200190815260200160002060009054906101000a900460ff16905092915050565b600080600080600760008681526020019081526020016000209050806000015481600101548260020154935093509350509193909250565b60606040518060400160405280600181526020017f3100000000000000000000000000000000000000000000000000000000000000815250905090565b6000806114e761264d565b905061150484828560405180602001604052806000815250612aa9565b91505092915050565b60008061151861264d565b905061156b87828888888080601f016020809104026020016040519081016040528093929190818152602001838380828437600081840152601f19601f8201169050808301925050505050505087612444565b91505095945050505050565b60008060096000018054905090506000811415611599576008549150506116e5565b600060096000016001836115ad9190616461565b815481106115e4577f4e487b7100000000000000000000000000000000000000000000000000000000600052603260045260246000fd5b906000526020600020016040518060400160405290816000820160009054906101000a900463ffffffff1663ffffffff1663ffffffff1681526020016000820160049054906101000a90047bffffffffffffffffffffffffffffffffffffffffffffffffffffffff167bffffffffffffffffffffffffffffffffffffffffffffffffffffffff167bffffffffffffffffffffffffffffffffffffffffffffffffffffffff1681525050905083816000015163ffffffff16116116cc5780602001517bffffffffffffffffffffffffffffffffffffffffffffffffffffffff16925050506116e5565b6116e0846009612d0790919063ffffffff16565b925050505b919050565b6116f2610aff565b73ffffffffffffffffffffffffffffffffffffffff1661171061264d565b73ffffffffffffffffffffffffffffffffffffffff1614611766576040517f08c379a000000000000000000000000000000000000000000000000000000000815260040161175d90615c6b565b60405180910390fd5b3073ffffffffffffffffffffffffffffffffffffffff16611785610aff565b73ffffffffffffffffffffffffffffffffffffffff16146117da5760006117aa612655565b6040516117b8929190615874565b604051809103902090505b806117ce6002612662565b146117d8576117c3565b505b6117e381612eab565b50565b6000806117f161264d565b905061184386828787878080601f016020809104026020016040519081016040528093929190818152602001838380828437600081840152601f19601f82011690508083019250505050505050612aa9565b915050949350505050565b600061185c85858585612ef0565b9050949350505050565b60006064905090565b600061187c84848461321d565b90509392505050565b600080600960000180549050146118a5576118a0600961223d565b6118a9565b6008545b905090565b6118b6610aff565b73ffffffffffffffffffffffffffffffffffffffff166118d461264d565b73ffffffffffffffffffffffffffffffffffffffff161461192a576040517f08c379a000000000000000000000000000000000000000000000000000000000815260040161192190615c6b565b60405180910390fd5b3073ffffffffffffffffffffffffffffffffffffffff16611949610aff565b73ffffffffffffffffffffffffffffffffffffffff161461199e57600061196e612655565b60405161197c929190615874565b604051809103902090505b806119926002612662565b1461199c57611987565b505b6119a7816132d3565b50565b600080600a60009054906101000a900473ffffffffffffffffffffffffffffffffffffffff1673ffffffffffffffffffffffffffffffffffffffff1663d45c4435600b6000868152602001908152602001600020546040518263ffffffff1660e01b8152600401611a1b9190615a9b565b60206040518083038186803b158015611a3357600080fd5b505afa158015611a47573d6000803e3d6000fd5b505050506040513d601f19601f82011682018060405250810190611a6b9190614e5e565b905060018114611a7b5780611a7e565b60005b915050919050565b6000611a90613372565b905090565b600063bc197c8160e01b905095945050505050565b6000611b07600160008481526020019081526020016000206001016040518060200160405290816000820160009054906101000a900467ffffffffffffffff1667ffffffffffffffff1667ffffffffffffffff1681525050612a91565b67ffffffffffffffff169050919050565b611b20610aff565b73ffffffffffffffffffffffffffffffffffffffff16611b3e61264d565b73ffffffffffffffffffffffffffffffffffffffff1614611b94576040517f08c379a0000000000000000000000000000000000000000000000000000000008152600401611b8b90615c6b565b60405180910390fd5b3073ffffffffffffffffffffffffffffffffffffffff16611bb3610aff565b73ffffffffffffffffffffffffffffffffffffffff1614611c08576000611bd8612655565b604051611be6929190615874565b604051809103902090505b80611bfc6002612662565b14611c0657611bf1565b505b611c578483838080601f016020809104026020016040519081016040528093929190818152602001838380828437600081840152601f19601f820116905080830192505050505050508561337c565b5050505050565b600084848484604051602001611c779493929190615948565b6040516020818303038152906040528051906020012060001c9050949350505050565b6000600a60009054906101000a900473ffffffffffffffffffffffffffffffffffffffff16905090565b60606040518060400160405280602081526020017f737570706f72743d627261766f2671756f72756d3d666f722c6162737461696e815250905090565b7f150214d74d59b7d1e90c73fc22ef3d991dd0a76b046543d4d80ab92d2a50328f81565b611d2d610aff565b73ffffffffffffffffffffffffffffffffffffffff16611d4b61264d565b73ffffffffffffffffffffffffffffffffffffffff1614611da1576040517f08c379a0000000000000000000000000000000000000000000000000000000008152600401611d9890615c6b565b60405180910390fd5b3073ffffffffffffffffffffffffffffffffffffffff16611dc0610aff565b73ffffffffffffffffffffffffffffffffffffffff1614611e15576000611de5612655565b604051611df3929190615874565b604051809103902090505b80611e096002612662565b14611e1357611dfe565b505b611e1e816133ab565b50565b6000611e358383611e30613433565b61321d565b905092915050565b611e45610aff565b73ffffffffffffffffffffffffffffffffffffffff16611e6361264d565b73ffffffffffffffffffffffffffffffffffffffff1614611eb9576040517f08c379a0000000000000000000000000000000000000000000000000000000008152600401611eb090615c6b565b60405180910390fd5b3073ffffffffffffffffffffffffffffffffffffffff16611ed8610aff565b73ffffffffffffffffffffffffffffffffffffffff1614611f2d576000611efd612655565b604051611f0b929190615874565b604051809103902090505b80611f216002612662565b14611f2b57611f16565b505b611f368161344a565b50565b600063f23a6e6160e01b905095945050505050565b6000611f598261348f565b9050919050565b7f000000000000000000000000000000000000000000000000000000000000000081565b60007bffffffffffffffffffffffffffffffffffffffffffffffffffffffff8016821115611fe7576040517f08c379a0000000000000000000000000000000000000000000000000000000008152600401611fde90615e0b565b60405180910390fd5b819050919050565b60008060008460000180549050905060006120098661223d565b9050600082118015612085575043866000016001846120289190616461565b8154811061205f577f4e487b7100000000000000000000000000000000000000000000000000000000600052603260045260246000fd5b9060005260206000200160000160009054906101000a900463ffffffff1663ffffffff16145b1561213b5761209385611f84565b866000016001846120a49190616461565b815481106120db577f4e487b7100000000000000000000000000000000000000000000000000000000600052603260045260246000fd5b9060005260206000200160000160046101000a8154817bffffffffffffffffffffffffffffffffffffffffffffffffffffffff02191690837bffffffffffffffffffffffffffffffffffffffffffffffffffffffff16021790555061222e565b856000016040518060400160405280612153436122fe565b63ffffffff16815260200161216788611f84565b7bffffffffffffffffffffffffffffffffffffffffffffffffffffffff168152509080600181540180825580915050600190039060005260206000200160009091909190915060008201518160000160006101000a81548163ffffffff021916908363ffffffff16021790555060208201518160000160046101000a8154817bffffffffffffffffffffffffffffffffffffffffffffffffffffffff02191690837bffffffffffffffffffffffffffffffffffffffffffffffffffffffff16021790555050505b80859350935050509250929050565b60008082600001805490509050600081146122d557826000016001826122639190616461565b8154811061229a577f4e487b7100000000000000000000000000000000000000000000000000000000600052603260045260246000fd5b9060005260206000200160000160049054906101000a90047bffffffffffffffffffffffffffffffffffffffffffffffffffffffff166122d8565b60005b7bffffffffffffffffffffffffffffffffffffffffffffffffffffffff16915050919050565b600063ffffffff8016821115612349576040517f08c379a000000000000000000000000000000000000000000000000000000000815260040161234090615eab565b60405180910390fd5b819050919050565b6000600a60009054906101000a900473ffffffffffffffffffffffffffffffffffffffff16905090565b60007f6e665ced000000000000000000000000000000000000000000000000000000007bffffffffffffffffffffffffffffffffffffffffffffffffffffffff1916827bffffffffffffffffffffffffffffffffffffffffffffffffffffffff191614806123ee57506123ed82613566565b5b9050919050565b6000600554905090565b600061241261240c6136cb565b836137e5565b9050919050565b600080600061242a87878787613818565b9150915061243781613925565b8192505050949350505050565b60008060016000888152602001908152602001600020905060016007811115612496577f4e487b7100000000000000000000000000000000000000000000000000000000600052602160045260246000fd5b61249f886113ea565b60078111156124d7577f4e487b7100000000000000000000000000000000000000000000000000000000600052602160045260246000fd5b14612517576040517f08c379a000000000000000000000000000000000000000000000000000000000815260040161250e90615d6b565b60405180910390fd5b600061257687612566846000016040518060200160405290816000820160009054906101000a900467ffffffffffffffff1667ffffffffffffffff1667ffffffffffffffff1681525050612a91565b67ffffffffffffffff168661321d565b90506125858888888488613c76565b6000845114156125e8578673ffffffffffffffffffffffffffffffffffffffff167fb8e138887d0aa13bab447e82de9d5c1777041ecd21ca36ba824ff1e6c07ddda4898884896040516125db9493929190616036565b60405180910390a261263f565b8673ffffffffffffffffffffffffffffffffffffffff167fe2babfbac5889a709b63bb7f598b324e08bc5a4fb9ec647fb3cbc9ec07eb87128988848989604051612636959493929190616082565b60405180910390a25b809250505095945050505050565b600033905090565b3660008036915091509091565b600061266d82613eef565b156126a4576040517f3db2a12a00000000000000000000000000000000000000000000000000000000815260040160405180910390fd5b60008260000160009054906101000a9004600f0b905082600101600082600f0b600f0b815260200190815260200160002054915082600101600082600f0b600f0b815260200190815260200160002060009055600181018360000160006101000a8154816fffffffffffffffffffffffffffffffff0219169083600f0b6fffffffffffffffffffffffffffffffff16021790555050919050565b612746611866565b811115612788576040517f08c379a000000000000000000000000000000000000000000000000000000000815260040161277f90615c8b565b60405180910390fd5b6000612792611885565b9050600081141580156127ad57506000600960000180549050145b1561289f5760096000016040518060400160405280600063ffffffff1681526020016127d884611f84565b7bffffffffffffffffffffffffffffffffffffffffffffffffffffffff168152509080600181540180825580915050600190039060005260206000200160009091909190915060008201518160000160006101000a81548163ffffffff021916908363ffffffff16021790555060208201518160000160046101000a8154817bffffffffffffffffffffffffffffffffffffffffffffffffffffffff02191690837bffffffffffffffffffffffffffffffffffffffffffffffffffffffff16021790555050505b6128b3826009611fef90919063ffffffff16565b50507f0553476bf02ef2726e8ce5ced78d63e26e602e4a2257b1f559418e24b463399781836040516128e6929190615fd6565b60405180910390a15050565b3073ffffffffffffffffffffffffffffffffffffffff16612911610aff565b73ffffffffffffffffffffffffffffffffffffffff1614612a1b5760005b8451811015612a19573073ffffffffffffffffffffffffffffffffffffffff16858281518110612988577f4e487b7100000000000000000000000000000000000000000000000000000000600052603260045260246000fd5b602002602001015173ffffffffffffffffffffffffffffffffffffffff161415612a0857612a078382815181106129e8577f4e487b7100000000000000000000000000000000000000000000000000000000600052603260045260246000fd5b6020026020010151805190602001206002613f2490919063ffffffff16565b5b80612a129061667c565b905061292f565b505b5050505050565b612a2f8585858585613fa0565b5050505050565b3073ffffffffffffffffffffffffffffffffffffffff16612a55610aff565b73ffffffffffffffffffffffffffffffffffffffff1614612a8a57612a7a6002613eef565b612a8957612a88600261403e565b5b5b5050505050565b600081600001519050919050565b6000600454905090565b6000612abf85858585612aba613433565b612444565b9050949350505050565b600080612ad5836140bf565b905060046007811115612b11577f4e487b7100000000000000000000000000000000000000000000000000000000600052602160045260246000fd5b816007811115612b4a577f4e487b7100000000000000000000000000000000000000000000000000000000600052602160045260246000fd5b14612b585780915050612d02565b6000600b60008581526020019081526020016000205490506000801b811415612b85578192505050612d02565b600a60009054906101000a900473ffffffffffffffffffffffffffffffffffffffff1673ffffffffffffffffffffffffffffffffffffffff16632ab0f529826040518263ffffffff1660e01b8152600401612be09190615a9b565b60206040518083038186803b158015612bf857600080fd5b505afa158015612c0c573d6000803e3d6000fd5b505050506040513d601f19601f82011682018060405250810190612c309190614d91565b15612c4057600792505050612d02565b600a60009054906101000a900473ffffffffffffffffffffffffffffffffffffffff1673ffffffffffffffffffffffffffffffffffffffff1663584b153e826040518263ffffffff1660e01b8152600401612c9b9190615a9b565b60206040518083038186803b158015612cb357600080fd5b505afa158015612cc7573d6000803e3d6000fd5b505050506040513d601f19601f82011682018060405250810190612ceb9190614d91565b15612cfb57600592505050612d02565b6002925050505b919050565b6000438210612d4b576040517f08c379a0000000000000000000000000000000000000000000000000000000008152600401612d4290615d8b565b60405180910390fd5b60008360000180549050905060005b81811015612df5576000612d6e82846141d4565b905084866000018281548110612dad577f4e487b7100000000000000000000000000000000000000000000000000000000600052603260045260246000fd5b9060005260206000200160000160009054906101000a900463ffffffff1663ffffffff161115612ddf57809250612def565b600181612dec9190616342565b91505b50612d5a565b60008214612e805784600001600183612e0e9190616461565b81548110612e45577f4e487b7100000000000000000000000000000000000000000000000000000000600052603260045260246000fd5b9060005260206000200160000160049054906101000a90047bffffffffffffffffffffffffffffffffffffffffffffffffffffffff16612e83565b60005b7bffffffffffffffffffffffffffffffffffffffffffffffffffffffff169250505092915050565b7fc565b045403dc03c2eea82b81a0465edad9e2e7fc4d97e11421c209da93d7a9360045482604051612ede929190615fd6565b60405180910390a18060048190555050565b6000612efa611a86565b612f17612f0561264d565b600143612f129190616461565b611e21565b1015612f58576040517f08c379a0000000000000000000000000000000000000000000000000000000008152600401612f4f90615eeb565b60405180910390fd5b6000612f6d8686868680519060200120611c5e565b90508451865114612fb3576040517f08c379a0000000000000000000000000000000000000000000000000000000008152600401612faa90615ccb565b60405180910390fd5b8351865114612ff7576040517f08c379a0000000000000000000000000000000000000000000000000000000008152600401612fee90615ccb565b60405180910390fd5b600086511161303b576040517f08c379a000000000000000000000000000000000000000000000000000000000815260040161303290615dab565b60405180910390fd5b600060016000838152602001908152602001600020905061309b816000016040518060200160405290816000820160009054906101000a900467ffffffffffffffff1667ffffffffffffffff1667ffffffffffffffff16815250506141fa565b6130da576040517f08c379a00000000000000000000000000000000000000000000000000000000081526004016130d190615e8b565b60405180910390fd5b60006130ec6130e7611351565b614214565b6130f543614214565b6130ff9190616398565b9050600061311361310e610b20565b614214565b8261311e9190616398565b9050613136828460000161426b90919063ffffffff16565b61314c818460010161426b90919063ffffffff16565b7f7d84a6263ae0d98d3329bd7b46bb4e8d6f98cd35a7adb45c274c8b7fd5ebd5e08461317661264d565b8b8b8d5167ffffffffffffffff8111156131b9577f4e487b7100000000000000000000000000000000000000000000000000000000600052604160045260246000fd5b6040519080825280602002602001820160405280156131ec57816020015b60608152602001906001900390816131d75790505b508c88888e60405161320699989796959493929190615f26565b60405180910390a183945050505050949350505050565b60007f000000000000000000000000000000000000000000000000000000000000000073ffffffffffffffffffffffffffffffffffffffff16633a46b1a885856040518363ffffffff1660e01b815260040161327a92919061591f565b60206040518083038186803b15801561329257600080fd5b505afa1580156132a6573d6000803e3d6000fd5b505050506040513d601f19601f820116820180604052508101906132ca9190614e5e565b90509392505050565b7f08f74ea46ef7894f65eabfb5e6e695de773a000b47c529ab559178069b226401600a60009054906101000a900473ffffffffffffffffffffffffffffffffffffffff16826040516133269291906158f6565b60405180910390a180600a60006101000a81548173ffffffffffffffffffffffffffffffffffffffff021916908373ffffffffffffffffffffffffffffffffffffffff16021790555050565b6000600654905090565b60606133a2848484604051806060016040528060298152602001616e9d6029913961429a565b90509392505050565b600081116133ee576040517f08c379a00000000000000000000000000000000000000000000000000000000081526004016133e590615ceb565b60405180910390fd5b7f7e3f7f0708a84de9203036abaa450dccc85ad5ff52f78c170f3edb55cf5e882860055482604051613421929190615fd6565b60405180910390a18060058190555050565b606060405180602001604052806000815250905090565b7fccb45da8d5717e6c4544694297c4ba5cf151d455c9bb0ed4fc7a38411bc054616006548260405161347d929190615fd6565b60405180910390a18060068190555050565b6000613499611866565b6134a283611577565b7f000000000000000000000000000000000000000000000000000000000000000073ffffffffffffffffffffffffffffffffffffffff16638e539e8c856040518263ffffffff1660e01b81526004016134fb9190615f0b565b60206040518083038186803b15801561351357600080fd5b505afa158015613527573d6000803e3d6000fd5b505050506040513d601f19601f8201168201806040525081019061354b9190614e5e565b6135559190616407565b61355f91906163d6565b9050919050565b6000639a802a6d60e01b630342018160e01b635f398a1460e01b7f79dd796f000000000000000000000000000000000000000000000000000000001818187bffffffffffffffffffffffffffffffffffffffffffffffffffffffff1916827bffffffffffffffffffffffffffffffffffffffffffffffffffffffff1916148061364c57507f79dd796f000000000000000000000000000000000000000000000000000000007bffffffffffffffffffffffffffffffffffffffffffffffffffffffff1916827bffffffffffffffffffffffffffffffffffffffffffffffffffffffff1916145b806136b457507f4e2312e0000000000000000000000000000000000000000000000000000000007bffffffffffffffffffffffffffffffffffffffffffffffffffffffff1916827bffffffffffffffffffffffffffffffffffffffffffffffffffffffff1916145b806136c457506136c3826143ae565b5b9050919050565b60007f000000000000000000000000000000000000000000000000000000000000000073ffffffffffffffffffffffffffffffffffffffff163073ffffffffffffffffffffffffffffffffffffffff1614801561374757507f000000000000000000000000000000000000000000000000000000000000000046145b15613774577f000000000000000000000000000000000000000000000000000000000000000090506137e2565b6137df7f00000000000000000000000000000000000000000000000000000000000000007f00000000000000000000000000000000000000000000000000000000000000007f0000000000000000000000000000000000000000000000000000000000000000614418565b90505b90565b600082826040516020016137fa9291906158a4565b60405160208183030381529060405280519060200120905092915050565b6000807f7fffffffffffffffffffffffffffffff5d576e7357a4501ddfe92f46681b20a08360001c111561385357600060039150915061391c565b601b8560ff161415801561386b5750601c8560ff1614155b1561387d57600060049150915061391c565b6000600187878787604051600081526020016040526040516138a29493929190615b93565b6020604051602081039080840390855afa1580156138c4573d6000803e3d6000fd5b505050602060405103519050600073ffffffffffffffffffffffffffffffffffffffff168173ffffffffffffffffffffffffffffffffffffffff1614156139135760006001925092505061391c565b80600092509250505b94509492505050565b6000600481111561395f577f4e487b7100000000000000000000000000000000000000000000000000000000600052602160045260246000fd5b816004811115613998577f4e487b7100000000000000000000000000000000000000000000000000000000600052602160045260246000fd5b14156139a357613c73565b600160048111156139dd577f4e487b7100000000000000000000000000000000000000000000000000000000600052602160045260246000fd5b816004811115613a16577f4e487b7100000000000000000000000000000000000000000000000000000000600052602160045260246000fd5b1415613a57576040517f08c379a0000000000000000000000000000000000000000000000000000000008152600401613a4e90615c4b565b60405180910390fd5b60026004811115613a91577f4e487b7100000000000000000000000000000000000000000000000000000000600052602160045260246000fd5b816004811115613aca577f4e487b7100000000000000000000000000000000000000000000000000000000600052602160045260246000fd5b1415613b0b576040517f08c379a0000000000000000000000000000000000000000000000000000000008152600401613b0290615cab565b60405180910390fd5b60036004811115613b45577f4e487b7100000000000000000000000000000000000000000000000000000000600052602160045260246000fd5b816004811115613b7e577f4e487b7100000000000000000000000000000000000000000000000000000000600052602160045260246000fd5b1415613bbf576040517f08c379a0000000000000000000000000000000000000000000000000000000008152600401613bb690615d0b565b60405180910390fd5b600480811115613bf8577f4e487b7100000000000000000000000000000000000000000000000000000000600052602160045260246000fd5b816004811115613c31577f4e487b7100000000000000000000000000000000000000000000000000000000600052602160045260246000fd5b1415613c72576040517f08c379a0000000000000000000000000000000000000000000000000000000008152600401613c6990615dcb565b60405180910390fd5b5b50565b60006007600087815260200190815260200160002090508060030160008673ffffffffffffffffffffffffffffffffffffffff1673ffffffffffffffffffffffffffffffffffffffff16815260200190815260200160002060009054906101000a900460ff1615613d1c576040517f08c379a0000000000000000000000000000000000000000000000000000000008152600401613d1390615d2b565b60405180910390fd5b60018160030160008773ffffffffffffffffffffffffffffffffffffffff1673ffffffffffffffffffffffffffffffffffffffff16815260200190815260200160002060006101000a81548160ff02191690831515021790555060006002811115613db0577f4e487b7100000000000000000000000000000000000000000000000000000000600052602160045260246000fd5b60ff168460ff161415613ddd5782816000016000828254613dd19190616342565b92505081905550613ee7565b60016002811115613e17577f4e487b7100000000000000000000000000000000000000000000000000000000600052602160045260246000fd5b60ff168460ff161415613e445782816001016000828254613e389190616342565b92505081905550613ee6565b600280811115613e7d577f4e487b7100000000000000000000000000000000000000000000000000000000600052602160045260246000fd5b60ff168460ff161415613eaa5782816002016000828254613e9e9190616342565b92505081905550613ee5565b6040517f08c379a0000000000000000000000000000000000000000000000000000000008152600401613edc90615e6b565b60405180910390fd5b5b5b505050505050565b60008160000160009054906101000a9004600f0b600f0b8260000160109054906101000a9004600f0b600f0b13159050919050565b60008260000160109054906101000a9004600f0b90508183600101600083600f0b600f0b815260200190815260200160002081905550600181018360000160106101000a8154816fffffffffffffffffffffffffffffffff0219169083600f0b6fffffffffffffffffffffffffffffffff160217905550505050565b600a60009054906101000a900473ffffffffffffffffffffffffffffffffffffffff1673ffffffffffffffffffffffffffffffffffffffff1663e38335e5348686866000876040518763ffffffff1660e01b81526004016140059594939291906159a2565b6000604051808303818588803b15801561401e57600080fd5b505af1158015614032573d6000803e3d6000fd5b50505050505050505050565b60008160000160006101000a8154816fffffffffffffffffffffffffffffffff0219169083600f0b6fffffffffffffffffffffffffffffffff16021790555060008160000160106101000a8154816fffffffffffffffffffffffffffffffff0219169083600f0b6fffffffffffffffffffffffffffffffff16021790555050565b6000806001600084815260200190815260200160002090508060020160009054906101000a900460ff16156140f85760079150506141cf565b8060020160019054906101000a900460ff16156141195760029150506141cf565b6000614124846112bf565b9050600081141561416a576040517f08c379a000000000000000000000000000000000000000000000000000000000815260040161416190615e4b565b60405180910390fd5b43811061417c576000925050506141cf565b600061418785611aaa565b905043811061419c57600193505050506141cf565b6141a585614452565b80156141b657506141b585614499565b5b156141c757600493505050506141cf565b600393505050505b919050565b600060028284186141e591906163d6565b8284166141f29190616342565b905092915050565b600080826000015167ffffffffffffffff16149050919050565b600067ffffffffffffffff8016821115614263576040517f08c379a000000000000000000000000000000000000000000000000000000000815260040161425a90615deb565b60405180910390fd5b819050919050565b808260000160006101000a81548167ffffffffffffffff021916908367ffffffffffffffff1602179055505050565b6060824710156142df576040517f08c379a00000000000000000000000000000000000000000000000000000000081526004016142d690615d4b565b60405180910390fd5b6142e8856144c4565b614327576040517f08c379a000000000000000000000000000000000000000000000000000000000815260040161431e90615ecb565b60405180910390fd5b6000808673ffffffffffffffffffffffffffffffffffffffff168587604051614350919061588d565b60006040518083038185875af1925050503d806000811461438d576040519150601f19603f3d011682016040523d82523d6000602084013e614392565b606091505b50915091506143a28282866144e7565b92505050949350505050565b60007f01ffc9a7000000000000000000000000000000000000000000000000000000007bffffffffffffffffffffffffffffffffffffffffffffffffffffffff1916827bffffffffffffffffffffffffffffffffffffffffffffffffffffffff1916149050919050565b60008383834630604051602001614433959493929190615ab6565b6040516020818303038152906040528051906020012090509392505050565b6000806007600084815260200190815260200160002090508060020154816001015461447e9190616342565b61448f61448a856112bf565b611f4e565b1115915050919050565b6000806007600084815260200190815260200160002090508060000154816001015411915050919050565b6000808273ffffffffffffffffffffffffffffffffffffffff163b119050919050565b606083156144f757829050614547565b60008351111561450a5782518084602001fd5b816040517f08c379a000000000000000000000000000000000000000000000000000000000815260040161453e9190615c29565b60405180910390fd5b9392505050565b600061456161455c84616108565b6160e3565b9050808382526020820190508285602086028201111561458057600080fd5b60005b858110156145b057816145968882614728565b845260208401935060208301925050600181019050614583565b5050509392505050565b60006145cd6145c884616134565b6160e3565b905080838252602082019050828560208602820111156145ec57600080fd5b60005b8581101561463657813567ffffffffffffffff81111561460e57600080fd5b80860161461b8982614859565b855260208501945060208401935050506001810190506145ef565b5050509392505050565b600061465361464e84616160565b6160e3565b9050808382526020820190508285602086028201111561467257600080fd5b60005b858110156146a25781614688888261490c565b845260208401935060208301925050600181019050614675565b5050509392505050565b60006146bf6146ba8461618c565b6160e3565b9050828152602081018484840111156146d757600080fd5b6146e28482856165d7565b509392505050565b60006146fd6146f8846161bd565b6160e3565b90508281526020810184848401111561471557600080fd5b6147208482856165d7565b509392505050565b60008135905061473781616dfb565b92915050565b600082601f83011261474e57600080fd5b813561475e84826020860161454e565b91505092915050565b600082601f83011261477857600080fd5b81356147888482602086016145ba565b91505092915050565b600082601f8301126147a257600080fd5b81356147b2848260208601614640565b91505092915050565b6000815190506147ca81616e12565b92915050565b6000813590506147df81616e29565b92915050565b6000815190506147f481616e29565b92915050565b60008135905061480981616e40565b92915050565b60008083601f84011261482157600080fd5b8235905067ffffffffffffffff81111561483a57600080fd5b60208301915083600182028301111561485257600080fd5b9250929050565b600082601f83011261486a57600080fd5b813561487a8482602086016146ac565b91505092915050565b60008135905061489281616e57565b92915050565b60008083601f8401126148aa57600080fd5b8235905067ffffffffffffffff8111156148c357600080fd5b6020830191508360018202830111156148db57600080fd5b9250929050565b600082601f8301126148f357600080fd5b81356149038482602086016146ea565b91505092915050565b60008135905061491b81616e6e565b92915050565b60008151905061493081616e6e565b92915050565b60008135905061494581616e85565b92915050565b600080600080600060a0868803121561496357600080fd5b600061497188828901614728565b955050602061498288828901614728565b945050604086013567ffffffffffffffff81111561499f57600080fd5b6149ab88828901614791565b935050606086013567ffffffffffffffff8111156149c857600080fd5b6149d488828901614791565b925050608086013567ffffffffffffffff8111156149f157600080fd5b6149fd88828901614859565b9150509295509295909350565b60008060008060808587031215614a2057600080fd5b6000614a2e87828801614728565b9450506020614a3f87828801614728565b9350506040614a508782880161490c565b925050606085013567ffffffffffffffff811115614a6d57600080fd5b614a7987828801614859565b91505092959194509250565b600080600080600060a08688031215614a9d57600080fd5b6000614aab88828901614728565b9550506020614abc88828901614728565b9450506040614acd8882890161490c565b9350506060614ade8882890161490c565b925050608086013567ffffffffffffffff811115614afb57600080fd5b614b0788828901614859565b9150509295509295909350565b60008060408385031215614b2757600080fd5b6000614b3585828601614728565b9250506020614b468582860161490c565b9150509250929050565b60008060008060608587031215614b6657600080fd5b6000614b7487828801614728565b9450506020614b858782880161490c565b935050604085013567ffffffffffffffff811115614ba257600080fd5b614bae8782880161480f565b925092505092959194509250565b600080600060608486031215614bd157600080fd5b6000614bdf86828701614728565b9350506020614bf08682870161490c565b925050604084013567ffffffffffffffff811115614c0d57600080fd5b614c1986828701614859565b9150509250925092565b60008060008060808587031215614c3957600080fd5b600085013567ffffffffffffffff811115614c5357600080fd5b614c5f8782880161473d565b945050602085013567ffffffffffffffff811115614c7c57600080fd5b614c8887828801614791565b935050604085013567ffffffffffffffff811115614ca557600080fd5b614cb187828801614767565b9250506060614cc2878288016147d0565b91505092959194509250565b60008060008060808587031215614ce457600080fd5b600085013567ffffffffffffffff811115614cfe57600080fd5b614d0a8782880161473d565b945050602085013567ffffffffffffffff811115614d2757600080fd5b614d3387828801614791565b935050604085013567ffffffffffffffff811115614d5057600080fd5b614d5c87828801614767565b925050606085013567ffffffffffffffff811115614d7957600080fd5b614d85878288016148e2565b91505092959194509250565b600060208284031215614da357600080fd5b6000614db1848285016147bb565b91505092915050565b600060208284031215614dcc57600080fd5b6000614dda848285016147e5565b91505092915050565b600060208284031215614df557600080fd5b6000614e03848285016147fa565b91505092915050565b600060208284031215614e1e57600080fd5b6000614e2c84828501614883565b91505092915050565b600060208284031215614e4757600080fd5b6000614e558482850161490c565b91505092915050565b600060208284031215614e7057600080fd5b6000614e7e84828501614921565b91505092915050565b60008060408385031215614e9a57600080fd5b6000614ea88582860161490c565b9250506020614eb985828601614728565b9150509250929050565b60008060408385031215614ed657600080fd5b6000614ee48582860161490c565b9250506020614ef585828601614936565b9150509250929050565b60008060008060608587031215614f1557600080fd5b6000614f238782880161490c565b9450506020614f3487828801614936565b935050604085013567ffffffffffffffff811115614f5157600080fd5b614f5d87828801614898565b925092505092959194509250565b600080600080600060808688031215614f8357600080fd5b6000614f918882890161490c565b9550506020614fa288828901614936565b945050604086013567ffffffffffffffff811115614fbf57600080fd5b614fcb88828901614898565b9350935050606086013567ffffffffffffffff811115614fea57600080fd5b614ff688828901614859565b9150509295509295909350565b60008060008060008060008060e0898b03121561501f57600080fd5b600061502d8b828c0161490c565b985050602061503e8b828c01614936565b975050604089013567ffffffffffffffff81111561505b57600080fd5b6150678b828c01614898565b9650965050606089013567ffffffffffffffff81111561508657600080fd5b6150928b828c01614859565b94505060806150a38b828c01614936565b93505060a06150b48b828c016147d0565b92505060c06150c58b828c016147d0565b9150509295985092959890939650565b600080600080600060a086880312156150ed57600080fd5b60006150fb8882890161490c565b955050602061510c88828901614936565b945050604061511d88828901614936565b935050606061512e888289016147d0565b925050608061513f888289016147d0565b9150509295509295909350565b600061515883836151a4565b60208301905092915050565b600061517083836153d1565b905092915050565b600061518483836154a1565b905092915050565b60006151988383615838565b60208301905092915050565b6151ad81616495565b82525050565b6151bc81616495565b82525050565b60006151cd8261622e565b6151d781856162a4565b93506151e2836161ee565b8060005b838110156152135781516151fa888261514c565b975061520583616270565b9250506001810190506151e6565b5085935050505092915050565b600061522b82616239565b61523581856162b5565b935083602082028501615247856161fe565b8060005b8581101561528357848403895281516152648582615164565b945061526f8361627d565b925060208a0199505060018101905061524b565b50829750879550505050505092915050565b60006152a082616244565b6152aa81856162c6565b9350836020820285016152bc8561620e565b8060005b858110156152f857848403895281516152d98582615178565b94506152e48361628a565b925060208a019950506001810190506152c0565b50829750879550505050505092915050565b60006153158261624f565b61531f81856162d7565b935061532a8361621e565b8060005b8381101561535b578151615342888261518c565b975061534d83616297565b92505060018101905061532e565b5085935050505092915050565b615371816164b9565b82525050565b615380816164c5565b82525050565b615397615392826164c5565b6166c5565b82525050565b6153a6816164cf565b82525050565b60006153b8838561630a565b93506153c58385846165d7565b82840190509392505050565b60006153dc8261625a565b6153e681856162e8565b93506153f68185602086016165e6565b6153ff816167ba565b840191505092915050565b60006154158261625a565b61541f81856162f9565b935061542f8185602086016165e6565b615438816167ba565b840191505092915050565b600061544e8261625a565b615458818561630a565b93506154688185602086016165e6565b80840191505092915050565b61547d81616575565b82525050565b61548c81616599565b82525050565b61549b816165ab565b82525050565b60006154ac82616265565b6154b68185616315565b93506154c68185602086016165e6565b6154cf816167ba565b840191505092915050565b60006154e582616265565b6154ef8185616326565b93506154ff8185602086016165e6565b615508816167ba565b840191505092915050565b6000615520601883616326565b915061552b826167d8565b602082019050919050565b6000615543601883616326565b915061554e82616801565b602082019050919050565b6000615566604383616326565b91506155718261682a565b606082019050919050565b6000615589601f83616326565b91506155948261689f565b602082019050919050565b60006155ac600283616337565b91506155b7826168c8565b600282019050919050565b60006155cf602183616326565b91506155da826168f1565b604082019050919050565b60006155f2602783616326565b91506155fd82616940565b604082019050919050565b6000615615602283616326565b91506156208261698f565b604082019050919050565b6000615638602783616326565b9150615643826169de565b604082019050919050565b600061565b602683616326565b915061566682616a2d565b604082019050919050565b600061567e602383616326565b915061568982616a7c565b604082019050919050565b60006156a1602083616326565b91506156ac82616acb565b602082019050919050565b60006156c4601883616326565b91506156cf82616af4565b602082019050919050565b60006156e7602283616326565b91506156f282616b1d565b604082019050919050565b600061570a602683616326565b915061571582616b6c565b604082019050919050565b600061572d602783616326565b915061573882616bbb565b604082019050919050565b6000615750602183616326565b915061575b82616c0a565b604082019050919050565b6000615773601d83616326565b915061577e82616c59565b602082019050919050565b6000615796603583616326565b91506157a182616c82565b604082019050919050565b60006157b9602183616326565b91506157c482616cd1565b604082019050919050565b60006157dc602683616326565b91506157e782616d20565b604082019050919050565b60006157ff601d83616326565b915061580a82616d6f565b602082019050919050565b6000615822603183616326565b915061582d82616d98565b604082019050919050565b6158418161654a565b82525050565b6158508161654a565b82525050565b61585f816165c5565b82525050565b61586e81616568565b82525050565b60006158818284866153ac565b91508190509392505050565b60006158998284615443565b915081905092915050565b60006158af8261559f565b91506158bb8285615386565b6020820191506158cb8284615386565b6020820191508190509392505050565b60006020820190506158f060008301846151b3565b92915050565b600060408201905061590b60008301856151b3565b61591860208301846151b3565b9392505050565b600060408201905061593460008301856151b3565b6159416020830184615847565b9392505050565b6000608082019050818103600083015261596281876151c2565b90508181036020830152615976818661530a565b9050818103604083015261598a8185615220565b90506159996060830184615377565b95945050505050565b600060a08201905081810360008301526159bc81886151c2565b905081810360208301526159d0818761530a565b905081810360408301526159e48186615220565b90506159f36060830185615492565b615a006080830184615377565b9695505050505050565b600060c0820190508181036000830152615a2481896151c2565b90508181036020830152615a38818861530a565b90508181036040830152615a4c8187615220565b9050615a5b6060830186615492565b615a686080830185615377565b615a7560a0830184615847565b979650505050505050565b6000602082019050615a956000830184615368565b92915050565b6000602082019050615ab06000830184615377565b92915050565b600060a082019050615acb6000830188615377565b615ad86020830187615377565b615ae56040830186615377565b615af26060830185615847565b615aff60808301846151b3565b9695505050505050565b6000606082019050615b1e6000830186615377565b615b2b6020830185615847565b615b386040830184615865565b949350505050565b600060a082019050615b556000830188615377565b615b626020830187615847565b615b6f6040830186615865565b615b7c6060830185615377565b615b896080830184615377565b9695505050505050565b6000608082019050615ba86000830187615377565b615bb56020830186615865565b615bc26040830185615377565b615bcf6060830184615377565b95945050505050565b6000602082019050615bed600083018461539d565b92915050565b6000602082019050615c086000830184615474565b92915050565b6000602082019050615c236000830184615483565b92915050565b60006020820190508181036000830152615c4381846154da565b905092915050565b60006020820190508181036000830152615c6481615513565b9050919050565b60006020820190508181036000830152615c8481615536565b9050919050565b60006020820190508181036000830152615ca481615559565b9050919050565b60006020820190508181036000830152615cc48161557c565b9050919050565b60006020820190508181036000830152615ce4816155c2565b9050919050565b60006020820190508181036000830152615d04816155e5565b9050919050565b60006020820190508181036000830152615d2481615608565b9050919050565b60006020820190508181036000830152615d448161562b565b9050919050565b60006020820190508181036000830152615d648161564e565b9050919050565b60006020820190508181036000830152615d8481615671565b9050919050565b60006020820190508181036000830152615da481615694565b9050919050565b60006020820190508181036000830152615dc4816156b7565b9050919050565b60006020820190508181036000830152615de4816156da565b9050919050565b60006020820190508181036000830152615e04816156fd565b9050919050565b60006020820190508181036000830152615e2481615720565b9050919050565b60006020820190508181036000830152615e4481615743565b9050919050565b60006020820190508181036000830152615e6481615766565b9050919050565b60006020820190508181036000830152615e8481615789565b9050919050565b60006020820190508181036000830152615ea4816157ac565b9050919050565b60006020820190508181036000830152615ec4816157cf565b9050919050565b60006020820190508181036000830152615ee4816157f2565b9050919050565b60006020820190508181036000830152615f0481615815565b9050919050565b6000602082019050615f206000830184615847565b92915050565b600061012082019050615f3c600083018c615847565b615f49602083018b6151b3565b8181036040830152615f5b818a6151c2565b90508181036060830152615f6f818961530a565b90508181036080830152615f838188615295565b905081810360a0830152615f978187615220565b9050615fa660c0830186615856565b615fb360e0830185615856565b818103610100830152615fc681846154da565b90509a9950505050505050505050565b6000604082019050615feb6000830185615847565b615ff86020830184615847565b9392505050565b60006060820190506160146000830186615847565b6160216020830185615847565b61602e6040830184615847565b949350505050565b600060808201905061604b6000830187615847565b6160586020830186615865565b6160656040830185615847565b818103606083015261607781846154da565b905095945050505050565b600060a0820190506160976000830188615847565b6160a46020830187615865565b6160b16040830186615847565b81810360608301526160c381856154da565b905081810360808301526160d7818461540a565b90509695505050505050565b60006160ed6160fe565b90506160f9828261664b565b919050565b6000604051905090565b600067ffffffffffffffff8211156161235761612261678b565b5b602082029050602081019050919050565b600067ffffffffffffffff82111561614f5761614e61678b565b5b602082029050602081019050919050565b600067ffffffffffffffff82111561617b5761617a61678b565b5b602082029050602081019050919050565b600067ffffffffffffffff8211156161a7576161a661678b565b5b6161b0826167ba565b9050602081019050919050565b600067ffffffffffffffff8211156161d8576161d761678b565b5b6161e1826167ba565b9050602081019050919050565b6000819050602082019050919050565b6000819050602082019050919050565b6000819050602082019050919050565b6000819050602082019050919050565b600081519050919050565b600081519050919050565b600081519050919050565b600081519050919050565b600081519050919050565b600081519050919050565b6000602082019050919050565b6000602082019050919050565b6000602082019050919050565b6000602082019050919050565b600082825260208201905092915050565b600082825260208201905092915050565b600082825260208201905092915050565b600082825260208201905092915050565b600082825260208201905092915050565b600082825260208201905092915050565b600081905092915050565b600082825260208201905092915050565b600082825260208201905092915050565b600081905092915050565b600061634d8261654a565b91506163588361654a565b9250827fffffffffffffffffffffffffffffffffffffffffffffffffffffffffffffffff0382111561638d5761638c6166cf565b5b828201905092915050565b60006163a382616554565b91506163ae83616554565b92508267ffffffffffffffff038211156163cb576163ca6166cf565b5b828201905092915050565b60006163e18261654a565b91506163ec8361654a565b9250826163fc576163fb6166fe565b5b828204905092915050565b60006164128261654a565b915061641d8361654a565b9250817fffffffffffffffffffffffffffffffffffffffffffffffffffffffffffffffff0483118215151615616456576164556166cf565b5b828202905092915050565b600061646c8261654a565b91506164778361654a565b92508282101561648a576164896166cf565b5b828203905092915050565b60006164a08261652a565b9050919050565b60006164b28261652a565b9050919050565b60008115159050919050565b6000819050919050565b60007fffffffff0000000000000000000000000000000000000000000000000000000082169050919050565b6000616506826164a7565b9050919050565b600081905061651b82616de7565b919050565b6000819050919050565b600073ffffffffffffffffffffffffffffffffffffffff82169050919050565b6000819050919050565b600067ffffffffffffffff82169050919050565b600060ff82169050919050565b600061658082616587565b9050919050565b60006165928261652a565b9050919050565b60006165a48261650d565b9050919050565b60006165be6165b983616520565b6167cb565b9050919050565b60006165d082616554565b9050919050565b82818337600083830152505050565b60005b838110156166045780820151818401526020810190506165e9565b83811115616613576000848401525b50505050565b6000600282049050600182168061663157607f821691505b602082108114156166455761664461675c565b5b50919050565b616654826167ba565b810181811067ffffffffffffffff821117156166735761667261678b565b5b80604052505050565b60006166878261654a565b91507fffffffffffffffffffffffffffffffffffffffffffffffffffffffffffffffff8214156166ba576166b96166cf565b5b600182019050919050565b6000819050919050565b7f4e487b7100000000000000000000000000000000000000000000000000000000600052601160045260246000fd5b7f4e487b7100000000000000000000000000000000000000000000000000000000600052601260045260246000fd5b7f4e487b7100000000000000000000000000000000000000000000000000000000600052602160045260246000fd5b7f4e487b7100000000000000000000000000000000000000000000000000000000600052602260045260246000fd5b7f4e487b7100000000000000000000000000000000000000000000000000000000600052604160045260246000fd5b6000601f19601f8301169050919050565b60008160001b9050919050565b7f45434453413a20696e76616c6964207369676e61747572650000000000000000600082015250565b7f476f7665726e6f723a206f6e6c79476f7665726e616e63650000000000000000600082015250565b7f476f7665726e6f72566f74657351756f72756d4672616374696f6e3a2071756f60008201527f72756d4e756d657261746f72206f7665722071756f72756d44656e6f6d696e6160208201527f746f720000000000000000000000000000000000000000000000000000000000604082015250565b7f45434453413a20696e76616c6964207369676e6174757265206c656e67746800600082015250565b7f1901000000000000000000000000000000000000000000000000000000000000600082015250565b7f476f7665726e6f723a20696e76616c69642070726f706f73616c206c656e677460008201527f6800000000000000000000000000000000000000000000000000000000000000602082015250565b7f476f7665726e6f7253657474696e67733a20766f74696e6720706572696f642060008201527f746f6f206c6f7700000000000000000000000000000000000000000000000000602082015250565b7f45434453413a20696e76616c6964207369676e6174757265202773272076616c60008201527f7565000000000000000000000000000000000000000000000000000000000000602082015250565b7f476f7665726e6f72566f74696e6753696d706c653a20766f746520616c72656160008201527f6479206361737400000000000000000000000000000000000000000000000000602082015250565b7f416464726573733a20696e73756666696369656e742062616c616e636520666f60008201527f722063616c6c0000000000000000000000000000000000000000000000000000602082015250565b7f476f7665726e6f723a20766f7465206e6f742063757272656e746c792061637460008201527f6976650000000000000000000000000000000000000000000000000000000000602082015250565b7f436865636b706f696e74733a20626c6f636b206e6f7420796574206d696e6564600082015250565b7f476f7665726e6f723a20656d7074792070726f706f73616c0000000000000000600082015250565b7f45434453413a20696e76616c6964207369676e6174757265202776272076616c60008201527f7565000000000000000000000000000000000000000000000000000000000000602082015250565b7f53616665436173743a2076616c756520646f65736e27742066697420696e203660008201527f3420626974730000000000000000000000000000000000000000000000000000602082015250565b7f53616665436173743a2076616c756520646f65736e27742066697420696e203260008201527f3234206269747300000000000000000000000000000000000000000000000000602082015250565b7f476f7665726e6f723a2070726f706f73616c206e6f742073756363657373667560008201527f6c00000000000000000000000000000000000000000000000000000000000000602082015250565b7f476f7665726e6f723a20756e6b6e6f776e2070726f706f73616c206964000000600082015250565b7f476f7665726e6f72566f74696e6753696d706c653a20696e76616c696420766160008201527f6c756520666f7220656e756d20566f7465547970650000000000000000000000602082015250565b7f476f7665726e6f723a2070726f706f73616c20616c726561647920657869737460008201527f7300000000000000000000000000000000000000000000000000000000000000602082015250565b7f53616665436173743a2076616c756520646f65736e27742066697420696e203360008201527f3220626974730000000000000000000000000000000000000000000000000000602082015250565b7f416464726573733a2063616c6c20746f206e6f6e2d636f6e7472616374000000600082015250565b7f476f7665726e6f723a2070726f706f73657220766f7465732062656c6f77207060008201527f726f706f73616c207468726573686f6c64000000000000000000000000000000602082015250565b60088110616df857616df761672d565b5b50565b616e0481616495565b8114616e0f57600080fd5b50565b616e1b816164b9565b8114616e2657600080fd5b50565b616e32816164c5565b8114616e3d57600080fd5b50565b616e49816164cf565b8114616e5457600080fd5b50565b616e60816164fb565b8114616e6b57600080fd5b50565b616e778161654a565b8114616e8257600080fd5b50565b616e8e81616568565b8114616e9957600080fd5b5056fe416464726573733a206c6f772d6c6576656c2063616c6c20776974682076616c7565206661696c6564a264697066735822122002a66e12e2e1001f91d17931bc0cf5cad632a05d949984568ab136abc4c3643d64736f6c63430008040033",
  "devdoc": {
    "errors": {
      "Empty()": [
        {
          "details": "An operation (e.g. {front}) couldn't be completed due to the queue being empty."
        }
      ]
    },
    "kind": "dev",
    "methods": {
      "COUNTING_MODE()": {
        "details": "See {IGovernor-COUNTING_MODE}."
      },
      "castVote(uint256,uint8)": {
        "details": "See {IGovernor-castVote}."
      },
      "castVoteBySig(uint256,uint8,uint8,bytes32,bytes32)": {
        "details": "See {IGovernor-castVoteBySig}."
      },
      "castVoteWithReason(uint256,uint8,string)": {
        "details": "See {IGovernor-castVoteWithReason}."
      },
      "castVoteWithReasonAndParams(uint256,uint8,string,bytes)": {
        "details": "See {IGovernor-castVoteWithReasonAndParams}."
      },
      "castVoteWithReasonAndParamsBySig(uint256,uint8,string,bytes,uint8,bytes32,bytes32)": {
        "details": "See {IGovernor-castVoteWithReasonAndParamsBySig}."
      },
      "execute(address[],uint256[],bytes[],bytes32)": {
        "details": "See {IGovernor-execute}."
      },
      "getVotes(address,uint256)": {
        "details": "See {IGovernor-getVotes}."
      },
      "getVotesWithParams(address,uint256,bytes)": {
        "details": "See {IGovernor-getVotesWithParams}."
      },
      "hasVoted(uint256,address)": {
        "details": "See {IGovernor-hasVoted}."
      },
      "hashProposal(address[],uint256[],bytes[],bytes32)": {
        "details": "See {IGovernor-hashProposal}. The proposal id is produced by hashing the ABI encoded `targets` array, the `values` array, the `calldatas` array and the descriptionHash (bytes32 which itself is the keccak256 hash of the description string). This proposal id can be produced from the proposal data which is part of the {ProposalCreated} event. It can even be computed in advance, before the proposal is submitted. Note that the chainId and the governor address are not part of the proposal id computation. Consequently, the same proposal (with same operation and same description) will have the same id if submitted on multiple governors across multiple networks. This also means that in order to execute the same operation twice (on the same governor) the proposer will have to change the description in order to avoid proposal id conflicts."
      },
      "name()": {
        "details": "See {IGovernor-name}."
      },
      "onERC1155BatchReceived(address,address,uint256[],uint256[],bytes)": {
        "details": "See {IERC1155Receiver-onERC1155BatchReceived}."
      },
      "onERC1155Received(address,address,uint256,uint256,bytes)": {
        "details": "See {IERC1155Receiver-onERC1155Received}."
      },
      "onERC721Received(address,address,uint256,bytes)": {
        "details": "See {IERC721Receiver-onERC721Received}."
      },
      "proposalDeadline(uint256)": {
        "details": "See {IGovernor-proposalDeadline}."
      },
      "proposalEta(uint256)": {
        "details": "Public accessor to check the eta of a queued proposal"
      },
      "proposalSnapshot(uint256)": {
        "details": "See {IGovernor-proposalSnapshot}."
      },
      "proposalVotes(uint256)": {
        "details": "Accessor to the internal vote counts."
      },
      "queue(address[],uint256[],bytes[],bytes32)": {
        "details": "Function to queue a proposal to the timelock."
      },
      "quorumDenominator()": {
        "details": "Returns the quorum denominator. Defaults to 100, but may be overridden."
      },
      "quorumNumerator()": {
        "details": "Returns the current quorum numerator. See {quorumDenominator}."
      },
      "quorumNumerator(uint256)": {
        "details": "Returns the quorum numerator at a specific block number. See {quorumDenominator}."
      },
      "relay(address,uint256,bytes)": {
        "details": "Relays a transaction or function call to an arbitrary target. In cases where the governance executor is some contract other than the governor itself, like when using a timelock, this function can be invoked in a governance proposal to recover tokens or Ether that was sent to the governor contract by mistake. Note that if the executor is simply the governor itself, use of `relay` is redundant."
      },
      "setProposalThreshold(uint256)": {
        "details": "Update the proposal threshold. This operation can only be performed through a governance proposal. Emits a {ProposalThresholdSet} event."
      },
      "setVotingDelay(uint256)": {
        "details": "Update the voting delay. This operation can only be performed through a governance proposal. Emits a {VotingDelaySet} event."
      },
      "setVotingPeriod(uint256)": {
        "details": "Update the voting period. This operation can only be performed through a governance proposal. Emits a {VotingPeriodSet} event."
      },
      "timelock()": {
        "details": "Public accessor to check the address of the timelock"
      },
      "updateQuorumNumerator(uint256)": {
        "details": "Changes the quorum numerator. Emits a {QuorumNumeratorUpdated} event. Requirements: - Must be called through a governance proposal. - New numerator must be smaller or equal to the denominator."
      },
      "updateTimelock(address)": {
        "details": "Public endpoint to update the underlying timelock instance. Restricted to the timelock itself, so updates must be proposed, scheduled, and executed through governance proposals. CAUTION: It is not recommended to change the timelock while there are other queued governance proposals."
      },
      "version()": {
        "details": "See {IGovernor-version}."
      }
    },
    "version": 1
  },
  "userdoc": {
    "kind": "user",
    "methods": {},
    "version": 1
  },
  "storageLayout": {
    "storage": [
      {
        "astId": 565,
        "contract": "contracts/governance_standard/GovernerContract.sol:GovernerContract",
        "label": "_name",
        "offset": 0,
        "slot": "0",
        "type": "t_string_storage"
      },
      {
        "astId": 570,
        "contract": "contracts/governance_standard/GovernerContract.sol:GovernerContract",
        "label": "_proposals",
        "offset": 0,
        "slot": "1",
        "type": "t_mapping(t_uint256,t_struct(ProposalCore)563_storage)"
      },
      {
        "astId": 573,
        "contract": "contracts/governance_standard/GovernerContract.sol:GovernerContract",
        "label": "_governanceCall",
        "offset": 0,
        "slot": "2",
        "type": "t_struct(Bytes32Deque)9759_storage"
      },
      {
        "astId": 3238,
        "contract": "contracts/governance_standard/GovernerContract.sol:GovernerContract",
        "label": "_votingDelay",
        "offset": 0,
        "slot": "4",
        "type": "t_uint256"
      },
      {
        "astId": 3240,
        "contract": "contracts/governance_standard/GovernerContract.sol:GovernerContract",
        "label": "_votingPeriod",
        "offset": 0,
        "slot": "5",
        "type": "t_uint256"
      },
      {
        "astId": 3242,
        "contract": "contracts/governance_standard/GovernerContract.sol:GovernerContract",
        "label": "_proposalThreshold",
        "offset": 0,
        "slot": "6",
        "type": "t_uint256"
      },
      {
        "astId": 3030,
        "contract": "contracts/governance_standard/GovernerContract.sol:GovernerContract",
        "label": "_proposalVotes",
        "offset": 0,
        "slot": "7",
        "type": "t_mapping(t_uint256,t_struct(ProposalVote)3025_storage)"
      },
      {
        "astId": 3841,
        "contract": "contracts/governance_standard/GovernerContract.sol:GovernerContract",
        "label": "_quorumNumerator",
        "offset": 0,
        "slot": "8",
        "type": "t_uint256"
      },
      {
        "astId": 3844,
        "contract": "contracts/governance_standard/GovernerContract.sol:GovernerContract",
        "label": "_quorumNumeratorHistory",
        "offset": 0,
        "slot": "9",
        "type": "t_struct(History)6052_storage"
      },
      {
        "astId": 3421,
        "contract": "contracts/governance_standard/GovernerContract.sol:GovernerContract",
        "label": "_timelock",
        "offset": 0,
        "slot": "10",
        "type": "t_contract(TimelockController)3004"
      },
      {
        "astId": 3425,
        "contract": "contracts/governance_standard/GovernerContract.sol:GovernerContract",
        "label": "_timelockIds",
        "offset": 0,
        "slot": "11",
        "type": "t_mapping(t_uint256,t_bytes32)"
      }
    ],
    "types": {
      "t_address": {
        "encoding": "inplace",
        "label": "address",
        "numberOfBytes": "20"
      },
      "t_array(t_struct(Checkpoint)6047_storage)dyn_storage": {
        "base": "t_struct(Checkpoint)6047_storage",
        "encoding": "dynamic_array",
        "label": "struct Checkpoints.Checkpoint[]",
        "numberOfBytes": "32"
      },
      "t_bool": {
        "encoding": "inplace",
        "label": "bool",
        "numberOfBytes": "1"
      },
      "t_bytes32": {
        "encoding": "inplace",
        "label": "bytes32",
        "numberOfBytes": "32"
      },
      "t_contract(TimelockController)3004": {
        "encoding": "inplace",
        "label": "contract TimelockController",
        "numberOfBytes": "20"
      },
      "t_int128": {
        "encoding": "inplace",
        "label": "int128",
        "numberOfBytes": "16"
      },
      "t_mapping(t_address,t_bool)": {
        "encoding": "mapping",
        "key": "t_address",
        "label": "mapping(address => bool)",
        "numberOfBytes": "32",
        "value": "t_bool"
      },
      "t_mapping(t_int128,t_bytes32)": {
        "encoding": "mapping",
        "key": "t_int128",
        "label": "mapping(int128 => bytes32)",
        "numberOfBytes": "32",
        "value": "t_bytes32"
      },
      "t_mapping(t_uint256,t_bytes32)": {
        "encoding": "mapping",
        "key": "t_uint256",
        "label": "mapping(uint256 => bytes32)",
        "numberOfBytes": "32",
        "value": "t_bytes32"
      },
      "t_mapping(t_uint256,t_struct(ProposalCore)563_storage)": {
        "encoding": "mapping",
        "key": "t_uint256",
        "label": "mapping(uint256 => struct Governor.ProposalCore)",
        "numberOfBytes": "32",
        "value": "t_struct(ProposalCore)563_storage"
      },
      "t_mapping(t_uint256,t_struct(ProposalVote)3025_storage)": {
        "encoding": "mapping",
        "key": "t_uint256",
        "label": "mapping(uint256 => struct GovernorCountingSimple.ProposalVote)",
        "numberOfBytes": "32",
        "value": "t_struct(ProposalVote)3025_storage"
      },
      "t_string_storage": {
        "encoding": "bytes",
        "label": "string",
        "numberOfBytes": "32"
      },
      "t_struct(BlockNumber)6704_storage": {
        "encoding": "inplace",
        "label": "struct Timers.BlockNumber",
        "members": [
          {
            "astId": 6703,
            "contract": "contracts/governance_standard/GovernerContract.sol:GovernerContract",
            "label": "_deadline",
            "offset": 0,
            "slot": "0",
            "type": "t_uint64"
          }
        ],
        "numberOfBytes": "32"
      },
      "t_struct(Bytes32Deque)9759_storage": {
        "encoding": "inplace",
        "label": "struct DoubleEndedQueue.Bytes32Deque",
        "members": [
          {
            "astId": 9752,
            "contract": "contracts/governance_standard/GovernerContract.sol:GovernerContract",
            "label": "_begin",
            "offset": 0,
            "slot": "0",
            "type": "t_int128"
          },
          {
            "astId": 9754,
            "contract": "contracts/governance_standard/GovernerContract.sol:GovernerContract",
            "label": "_end",
            "offset": 16,
            "slot": "0",
            "type": "t_int128"
          },
          {
            "astId": 9758,
            "contract": "contracts/governance_standard/GovernerContract.sol:GovernerContract",
            "label": "_data",
            "offset": 0,
            "slot": "1",
            "type": "t_mapping(t_int128,t_bytes32)"
          }
        ],
        "numberOfBytes": "64"
      },
      "t_struct(Checkpoint)6047_storage": {
        "encoding": "inplace",
        "label": "struct Checkpoints.Checkpoint",
        "members": [
          {
            "astId": 6044,
            "contract": "contracts/governance_standard/GovernerContract.sol:GovernerContract",
            "label": "_blockNumber",
            "offset": 0,
            "slot": "0",
            "type": "t_uint32"
          },
          {
            "astId": 6046,
            "contract": "contracts/governance_standard/GovernerContract.sol:GovernerContract",
            "label": "_value",
            "offset": 4,
            "slot": "0",
            "type": "t_uint224"
          }
        ],
        "numberOfBytes": "32"
      },
      "t_struct(History)6052_storage": {
        "encoding": "inplace",
        "label": "struct Checkpoints.History",
        "members": [
          {
            "astId": 6051,
            "contract": "contracts/governance_standard/GovernerContract.sol:GovernerContract",
            "label": "_checkpoints",
            "offset": 0,
            "slot": "0",
            "type": "t_array(t_struct(Checkpoint)6047_storage)dyn_storage"
          }
        ],
        "numberOfBytes": "32"
      },
      "t_struct(ProposalCore)563_storage": {
        "encoding": "inplace",
        "label": "struct Governor.ProposalCore",
        "members": [
          {
            "astId": 555,
            "contract": "contracts/governance_standard/GovernerContract.sol:GovernerContract",
            "label": "voteStart",
            "offset": 0,
            "slot": "0",
            "type": "t_struct(BlockNumber)6704_storage"
          },
          {
            "astId": 558,
            "contract": "contracts/governance_standard/GovernerContract.sol:GovernerContract",
            "label": "voteEnd",
            "offset": 0,
            "slot": "1",
            "type": "t_struct(BlockNumber)6704_storage"
          },
          {
            "astId": 560,
            "contract": "contracts/governance_standard/GovernerContract.sol:GovernerContract",
            "label": "executed",
            "offset": 0,
            "slot": "2",
            "type": "t_bool"
          },
          {
            "astId": 562,
            "contract": "contracts/governance_standard/GovernerContract.sol:GovernerContract",
            "label": "canceled",
            "offset": 1,
            "slot": "2",
            "type": "t_bool"
          }
        ],
        "numberOfBytes": "96"
      },
      "t_struct(ProposalVote)3025_storage": {
        "encoding": "inplace",
        "label": "struct GovernorCountingSimple.ProposalVote",
        "members": [
          {
            "astId": 3016,
            "contract": "contracts/governance_standard/GovernerContract.sol:GovernerContract",
            "label": "againstVotes",
            "offset": 0,
            "slot": "0",
            "type": "t_uint256"
          },
          {
            "astId": 3018,
            "contract": "contracts/governance_standard/GovernerContract.sol:GovernerContract",
            "label": "forVotes",
            "offset": 0,
            "slot": "1",
            "type": "t_uint256"
          },
          {
            "astId": 3020,
            "contract": "contracts/governance_standard/GovernerContract.sol:GovernerContract",
            "label": "abstainVotes",
            "offset": 0,
            "slot": "2",
            "type": "t_uint256"
          },
          {
            "astId": 3024,
            "contract": "contracts/governance_standard/GovernerContract.sol:GovernerContract",
            "label": "hasVoted",
            "offset": 0,
            "slot": "3",
            "type": "t_mapping(t_address,t_bool)"
          }
        ],
        "numberOfBytes": "128"
      },
      "t_uint224": {
        "encoding": "inplace",
        "label": "uint224",
        "numberOfBytes": "28"
      },
      "t_uint256": {
        "encoding": "inplace",
        "label": "uint256",
        "numberOfBytes": "32"
      },
      "t_uint32": {
        "encoding": "inplace",
        "label": "uint32",
        "numberOfBytes": "4"
      },
      "t_uint64": {
        "encoding": "inplace",
        "label": "uint64",
        "numberOfBytes": "8"
      }
    }
  }
}